{
   "_format": "hh-sol-artifact-1",
   "contractName": "LandToken",
   "sourceName": "contracts/LandToken.sol",
   "abi": [
      {
         "inputs": [
            {
               "internalType": "address",
               "name": "functionRouterAddress",
               "type": "address"
            },
            {
               "internalType": "address",
               "name": "geoDataAddress",
               "type": "address"
            }
         ],
         "stateMutability": "nonpayable",
         "type": "constructor"
      },
      {
         "inputs": [],
         "name": "EmptySource",
         "type": "error"
      },
      {
         "inputs": [],
         "name": "NoInlineSecrets",
         "type": "error"
      },
      {
         "inputs": [],
         "name": "OnlyAutomationForwarderOrOwnerCanCall",
         "type": "error"
      },
      {
         "inputs": [],
         "name": "OnlyRouterCanFulfill",
         "type": "error"
      },
      {
         "anonymous": false,
         "inputs": [
            {
               "indexed": true,
               "internalType": "address",
               "name": "owner",
               "type": "address"
            },
            {
               "indexed": true,
               "internalType": "address",
               "name": "approved",
               "type": "address"
            },
            {
               "indexed": true,
               "internalType": "uint256",
               "name": "tokenId",
               "type": "uint256"
            }
         ],
         "name": "Approval",
         "type": "event"
      },
      {
         "anonymous": false,
         "inputs": [
            {
               "indexed": true,
               "internalType": "address",
               "name": "owner",
               "type": "address"
            },
            {
               "indexed": true,
               "internalType": "address",
               "name": "operator",
               "type": "address"
            },
            {
               "indexed": false,
               "internalType": "bool",
               "name": "approved",
               "type": "bool"
            }
         ],
         "name": "ApprovalForAll",
         "type": "event"
      },
      {
         "anonymous": false,
         "inputs": [
            {
               "indexed": false,
               "internalType": "uint256",
               "name": "_fromTokenId",
               "type": "uint256"
            },
            {
               "indexed": false,
               "internalType": "uint256",
               "name": "_toTokenId",
               "type": "uint256"
            }
         ],
         "name": "BatchMetadataUpdate",
         "type": "event"
      },
      {
         "anonymous": false,
         "inputs": [
            {
               "indexed": false,
               "internalType": "uint256",
               "name": "date",
               "type": "uint256"
            },
            {
               "indexed": false,
               "internalType": "bytes32",
               "name": "requestId",
               "type": "bytes32"
            }
         ],
         "name": "LandDailyReport",
         "type": "event"
      },
      {
         "anonymous": false,
         "inputs": [
            {
               "indexed": false,
               "internalType": "uint256",
               "name": "_tokenId",
               "type": "uint256"
            }
         ],
         "name": "MetadataUpdate",
         "type": "event"
      },
      {
         "anonymous": false,
         "inputs": [
            {
               "indexed": true,
               "internalType": "address",
               "name": "from",
               "type": "address"
            },
            {
               "indexed": true,
               "internalType": "address",
               "name": "to",
               "type": "address"
            }
         ],
         "name": "OwnershipTransferRequested",
         "type": "event"
      },
      {
         "anonymous": false,
         "inputs": [
            {
               "indexed": true,
               "internalType": "address",
               "name": "from",
               "type": "address"
            },
            {
               "indexed": true,
               "internalType": "address",
               "name": "to",
               "type": "address"
            }
         ],
         "name": "OwnershipTransferred",
         "type": "event"
      },
      {
         "anonymous": false,
         "inputs": [
            {
               "indexed": true,
               "internalType": "address",
               "name": "owner",
               "type": "address"
            },
            {
               "indexed": true,
               "internalType": "uint256",
               "name": "tokenId",
               "type": "uint256"
            },
            {
               "indexed": false,
               "internalType": "string",
               "name": "tokenURI",
               "type": "string"
            },
            {
               "indexed": false,
               "internalType": "string",
               "name": "coordinates",
               "type": "string"
            }
         ],
         "name": "Registered",
         "type": "event"
      },
      {
         "anonymous": false,
         "inputs": [
            {
               "indexed": false,
               "internalType": "uint256",
               "name": "tokenId",
               "type": "uint256"
            }
         ],
         "name": "RemovedToken",
         "type": "event"
      },
      {
         "anonymous": false,
         "inputs": [
            {
               "indexed": true,
               "internalType": "bytes32",
               "name": "id",
               "type": "bytes32"
            }
         ],
         "name": "RequestFulfilled",
         "type": "event"
      },
      {
         "anonymous": false,
         "inputs": [
            {
               "indexed": true,
               "internalType": "bytes32",
               "name": "id",
               "type": "bytes32"
            }
         ],
         "name": "RequestSent",
         "type": "event"
      },
      {
         "anonymous": false,
         "inputs": [
            {
               "indexed": true,
               "internalType": "address",
               "name": "from",
               "type": "address"
            },
            {
               "indexed": true,
               "internalType": "address",
               "name": "to",
               "type": "address"
            },
            {
               "indexed": true,
               "internalType": "uint256",
               "name": "tokenId",
               "type": "uint256"
            }
         ],
         "name": "Transfer",
         "type": "event"
      },
      {
         "anonymous": false,
         "inputs": [
            {
               "indexed": false,
               "internalType": "string",
               "name": "hash",
               "type": "string"
            },
            {
               "indexed": false,
               "internalType": "uint256",
               "name": "date",
               "type": "uint256"
            }
         ],
         "name": "UpdateSuccessfull",
         "type": "event"
      },
      {
         "inputs": [],
         "name": "acceptOwnership",
         "outputs": [],
         "stateMutability": "nonpayable",
         "type": "function"
      },
      {
         "inputs": [
            {
               "internalType": "address",
               "name": "to",
               "type": "address"
            },
            {
               "internalType": "uint256",
               "name": "tokenId",
               "type": "uint256"
            }
         ],
         "name": "approve",
         "outputs": [],
         "stateMutability": "nonpayable",
         "type": "function"
      },
      {
         "inputs": [
            {
               "internalType": "address",
               "name": "owner",
               "type": "address"
            }
         ],
         "name": "balanceOf",
         "outputs": [
            {
               "internalType": "uint256",
               "name": "",
               "type": "uint256"
            }
         ],
         "stateMutability": "view",
         "type": "function"
      },
      {
         "inputs": [],
         "name": "geoDataContract",
         "outputs": [
            {
               "internalType": "contract IGeoData",
               "name": "",
               "type": "address"
            }
         ],
         "stateMutability": "view",
         "type": "function"
      },
      {
         "inputs": [],
         "name": "getAllLandDetails",
         "outputs": [
            {
               "components": [
                  {
                     "internalType": "address",
                     "name": "owner",
                     "type": "address"
                  },
                  {
                     "internalType": "string",
                     "name": "lat",
                     "type": "string"
                  },
                  {
                     "internalType": "string",
                     "name": "log",
                     "type": "string"
                  },
                  {
                     "internalType": "string",
                     "name": "polygonId",
                     "type": "string"
                  }
               ],
               "internalType": "struct LandToken.LandDetails[]",
               "name": "",
               "type": "tuple[]"
            }
         ],
         "stateMutability": "view",
         "type": "function"
      },
      {
         "inputs": [
            {
               "internalType": "uint256",
               "name": "tokenId",
               "type": "uint256"
            }
         ],
         "name": "getApproved",
         "outputs": [
            {
               "internalType": "address",
               "name": "",
               "type": "address"
            }
         ],
         "stateMutability": "view",
         "type": "function"
      },
      {
         "inputs": [],
         "name": "getData",
         "outputs": [
            {
               "internalType": "string",
               "name": "",
               "type": "string"
            }
         ],
         "stateMutability": "view",
         "type": "function"
      },
      {
         "inputs": [
            {
               "internalType": "uint256",
               "name": "tokenId",
               "type": "uint256"
            }
         ],
         "name": "getLandDetails",
         "outputs": [
            {
               "components": [
                  {
                     "internalType": "address",
                     "name": "owner",
                     "type": "address"
                  },
                  {
                     "internalType": "string",
                     "name": "lat",
                     "type": "string"
                  },
                  {
                     "internalType": "string",
                     "name": "log",
                     "type": "string"
                  },
                  {
                     "internalType": "string",
                     "name": "polygonId",
                     "type": "string"
                  }
               ],
               "internalType": "struct LandToken.LandDetails",
               "name": "",
               "type": "tuple"
            }
         ],
         "stateMutability": "view",
         "type": "function"
      },
      {
         "inputs": [
            {
               "internalType": "string",
               "name": "appId",
               "type": "string"
            },
            {
               "internalType": "uint256",
               "name": "tokenId",
               "type": "uint256"
            }
         ],
         "name": "getLandGeo",
         "outputs": [
            {
               "internalType": "bytes",
               "name": "",
               "type": "bytes"
            }
         ],
         "stateMutability": "nonpayable",
         "type": "function"
      },
      {
         "inputs": [
            {
               "internalType": "bytes32",
               "name": "requestId",
               "type": "bytes32"
            },
            {
               "internalType": "bytes",
               "name": "response",
               "type": "bytes"
            },
            {
               "internalType": "bytes",
               "name": "err",
               "type": "bytes"
            }
         ],
         "name": "handleOracleFulfillment",
         "outputs": [],
         "stateMutability": "nonpayable",
         "type": "function"
      },
      {
         "inputs": [],
         "name": "ipfsHash",
         "outputs": [
            {
               "internalType": "string",
               "name": "",
               "type": "string"
            }
         ],
         "stateMutability": "view",
         "type": "function"
      },
      {
         "inputs": [
            {
               "internalType": "address",
               "name": "owner",
               "type": "address"
            },
            {
               "internalType": "address",
               "name": "operator",
               "type": "address"
            }
         ],
         "name": "isApprovedForAll",
         "outputs": [
            {
               "internalType": "bool",
               "name": "",
               "type": "bool"
            }
         ],
         "stateMutability": "view",
         "type": "function"
      },
      {
         "inputs": [
            {
               "internalType": "uint256",
               "name": "",
               "type": "uint256"
            }
         ],
         "name": "landDetailsArray",
         "outputs": [
            {
               "internalType": "address",
               "name": "owner",
               "type": "address"
            },
            {
               "internalType": "string",
               "name": "lat",
               "type": "string"
            },
            {
               "internalType": "string",
               "name": "log",
               "type": "string"
            },
            {
               "internalType": "string",
               "name": "polygonId",
               "type": "string"
            }
         ],
         "stateMutability": "view",
         "type": "function"
      },
      {
         "inputs": [],
         "name": "name",
         "outputs": [
            {
               "internalType": "string",
               "name": "",
               "type": "string"
            }
         ],
         "stateMutability": "view",
         "type": "function"
      },
      {
         "inputs": [],
         "name": "owner",
         "outputs": [
            {
               "internalType": "address",
               "name": "",
               "type": "address"
            }
         ],
         "stateMutability": "view",
         "type": "function"
      },
      {
         "inputs": [
            {
               "internalType": "uint256",
               "name": "tokenId",
               "type": "uint256"
            }
         ],
         "name": "ownerOf",
         "outputs": [
            {
               "internalType": "address",
               "name": "",
               "type": "address"
            }
         ],
         "stateMutability": "view",
         "type": "function"
      },
      {
         "inputs": [
            {
               "internalType": "string",
               "name": "tokenURI",
               "type": "string"
            },
            {
               "internalType": "string",
               "name": "coordinates",
               "type": "string"
            },
            {
               "internalType": "string",
               "name": "lat",
               "type": "string"
            },
            {
               "internalType": "string",
               "name": "lon",
               "type": "string"
            },
            {
               "internalType": "string",
               "name": "polygonId",
               "type": "string"
            }
         ],
         "name": "register",
         "outputs": [
            {
               "internalType": "uint256",
               "name": "",
               "type": "uint256"
            }
         ],
         "stateMutability": "nonpayable",
         "type": "function"
      },
      {
         "inputs": [
            {
               "internalType": "uint256",
               "name": "tokenId",
               "type": "uint256"
            }
         ],
         "name": "remove",
         "outputs": [],
         "stateMutability": "nonpayable",
         "type": "function"
      },
      {
         "inputs": [
            {
               "internalType": "address",
               "name": "from",
               "type": "address"
            },
            {
               "internalType": "address",
               "name": "to",
               "type": "address"
            },
            {
               "internalType": "uint256",
               "name": "tokenId",
               "type": "uint256"
            }
         ],
         "name": "safeTransferFrom",
         "outputs": [],
         "stateMutability": "nonpayable",
         "type": "function"
      },
      {
         "inputs": [
            {
               "internalType": "address",
               "name": "from",
               "type": "address"
            },
            {
               "internalType": "address",
               "name": "to",
               "type": "address"
            },
            {
               "internalType": "uint256",
               "name": "tokenId",
               "type": "uint256"
            },
            {
               "internalType": "bytes",
               "name": "data",
               "type": "bytes"
            }
         ],
         "name": "safeTransferFrom",
         "outputs": [],
         "stateMutability": "nonpayable",
         "type": "function"
      },
      {
         "inputs": [
            {
               "internalType": "address",
               "name": "operator",
               "type": "address"
            },
            {
               "internalType": "bool",
               "name": "approved",
               "type": "bool"
            }
         ],
         "name": "setApprovalForAll",
         "outputs": [],
         "stateMutability": "nonpayable",
         "type": "function"
      },
      {
         "inputs": [
            {
               "internalType": "address",
               "name": "automationForwarderAddress",
               "type": "address"
            }
         ],
         "name": "setAutomationForwarder",
         "outputs": [],
         "stateMutability": "nonpayable",
         "type": "function"
      },
      {
         "inputs": [
            {
               "internalType": "bytes4",
               "name": "interfaceId",
               "type": "bytes4"
            }
         ],
         "name": "supportsInterface",
         "outputs": [
            {
               "internalType": "bool",
               "name": "",
               "type": "bool"
            }
         ],
         "stateMutability": "view",
         "type": "function"
      },
      {
         "inputs": [],
         "name": "symbol",
         "outputs": [
            {
               "internalType": "string",
               "name": "",
               "type": "string"
            }
         ],
         "stateMutability": "view",
         "type": "function"
      },
      {
         "inputs": [
            {
               "internalType": "uint256",
               "name": "tokenId",
               "type": "uint256"
            }
         ],
         "name": "tokenURI",
         "outputs": [
            {
               "internalType": "string",
               "name": "",
               "type": "string"
            }
         ],
         "stateMutability": "view",
         "type": "function"
      },
      {
         "inputs": [
            {
               "internalType": "address",
               "name": "from",
               "type": "address"
            },
            {
               "internalType": "address",
               "name": "to",
               "type": "address"
            },
            {
               "internalType": "uint256",
               "name": "tokenId",
               "type": "uint256"
            }
         ],
         "name": "transferFrom",
         "outputs": [],
         "stateMutability": "nonpayable",
         "type": "function"
      },
      {
         "inputs": [
            {
               "internalType": "address",
               "name": "to",
               "type": "address"
            }
         ],
         "name": "transferOwnership",
         "outputs": [],
         "stateMutability": "nonpayable",
         "type": "function"
      },
      {
         "inputs": [
            {
               "internalType": "uint64",
               "name": "subscriptionId",
               "type": "uint64"
            },
            {
               "internalType": "uint32",
               "name": "gasLimit",
               "type": "uint32"
            },
            {
               "internalType": "bytes32",
               "name": "donID",
               "type": "bytes32"
            }
         ],
         "name": "updateDailyData",
         "outputs": [
            {
               "internalType": "bytes32",
               "name": "requestId",
               "type": "bytes32"
            }
         ],
         "stateMutability": "nonpayable",
         "type": "function"
      }
   ],
   "bytecode": "0x60a06040526040518060e0016040528060b0815260200161648260b091396009908161002b91906105df565b5034801561003857600080fd5b50604051616532380380616532833981810160405281019061005a9190610714565b81338060006040518060400160405280600481526020017f4c616e64000000000000000000000000000000000000000000000000000000008152506040518060400160405280600381526020017f4c4e44000000000000000000000000000000000000000000000000000000000081525081600090816100da91906105df565b5080600190816100ea91906105df565b505050600073ffffffffffffffffffffffffffffffffffffffff168273ffffffffffffffffffffffffffffffffffffffff160361015c576040517f08c379a0000000000000000000000000000000000000000000000000000000008152600401610153906107b1565b60405180910390fd5b81600760006101000a81548173ffffffffffffffffffffffffffffffffffffffff021916908373ffffffffffffffffffffffffffffffffffffffff160217905550600073ffffffffffffffffffffffffffffffffffffffff168173ffffffffffffffffffffffffffffffffffffffff16146101e1576101e08161026160201b60201c565b5b5050508073ffffffffffffffffffffffffffffffffffffffff1660808173ffffffffffffffffffffffffffffffffffffffff16815250505080600b60006101000a81548173ffffffffffffffffffffffffffffffffffffffff021916908373ffffffffffffffffffffffffffffffffffffffff160217905550505061083d565b3373ffffffffffffffffffffffffffffffffffffffff168173ffffffffffffffffffffffffffffffffffffffff16036102cf576040517f08c379a00000000000000000000000000000000000000000000000000000000081526004016102c69061081d565b60405180910390fd5b80600860006101000a81548173ffffffffffffffffffffffffffffffffffffffff021916908373ffffffffffffffffffffffffffffffffffffffff1602179055508073ffffffffffffffffffffffffffffffffffffffff16600760009054906101000a900473ffffffffffffffffffffffffffffffffffffffff1673ffffffffffffffffffffffffffffffffffffffff167fed8889f560326eb138920d842192f0eb3dd22b4f139c87a2c57538e05bae127860405160405180910390a350565b600081519050919050565b7f4e487b7100000000000000000000000000000000000000000000000000000000600052604160045260246000fd5b7f4e487b7100000000000000000000000000000000000000000000000000000000600052602260045260246000fd5b6000600282049050600182168061041057607f821691505b602082108103610423576104226103c9565b5b50919050565b60008190508160005260206000209050919050565b60006020601f8301049050919050565b600082821b905092915050565b60006008830261048b7fffffffffffffffffffffffffffffffffffffffffffffffffffffffffffffffff8261044e565b610495868361044e565b95508019841693508086168417925050509392505050565b6000819050919050565b6000819050919050565b60006104dc6104d76104d2846104ad565b6104b7565b6104ad565b9050919050565b6000819050919050565b6104f6836104c1565b61050a610502826104e3565b84845461045b565b825550505050565b600090565b61051f610512565b61052a8184846104ed565b505050565b5b8181101561054e57610543600082610517565b600181019050610530565b5050565b601f8211156105935761056481610429565b61056d8461043e565b8101602085101561057c578190505b6105906105888561043e565b83018261052f565b50505b505050565b600082821c905092915050565b60006105b660001984600802610598565b1980831691505092915050565b60006105cf83836105a5565b9150826002028217905092915050565b6105e88261038f565b67ffffffffffffffff8111156106015761060061039a565b5b61060b82546103f8565b610616828285610552565b600060209050601f8311600181146106495760008415610637578287015190505b61064185826105c3565b8655506106a9565b601f19841661065786610429565b60005b8281101561067f5784890151825560018201915060208501945060208101905061065a565b8683101561069c5784890151610698601f8916826105a5565b8355505b6001600288020188555050505b505050505050565b600080fd5b600073ffffffffffffffffffffffffffffffffffffffff82169050919050565b60006106e1826106b6565b9050919050565b6106f1816106d6565b81146106fc57600080fd5b50565b60008151905061070e816106e8565b92915050565b6000806040838503121561072b5761072a6106b1565b5b6000610739858286016106ff565b925050602061074a858286016106ff565b9150509250929050565b600082825260208201905092915050565b7f43616e6e6f7420736574206f776e657220746f207a65726f0000000000000000600082015250565b600061079b601883610754565b91506107a682610765565b602082019050919050565b600060208201905081810360008301526107ca8161078e565b9050919050565b7f43616e6e6f74207472616e7366657220746f2073656c66000000000000000000600082015250565b6000610807601783610754565b9150610812826107d1565b602082019050919050565b60006020820190508181036000830152610836816107fa565b9050919050565b608051615c2361085f6000396000818161080601526124350152615c236000f3fe608060405234801561001057600080fd5b50600436106101c45760003560e01c806379ba5097116100f9578063c623674f11610097578063d40d17bc11610071578063d40d17bc1461051c578063e985e9c514610538578063f2fde38b14610568578063fe0cb7dc14610584576101c4565b8063c623674f1461049b578063c87b56dd146104b9578063d074b04a146104e9576101c4565b8063a22cb465116100d3578063a22cb46514610427578063a6ac704e14610443578063afdb885b14610461578063b88d4fde1461047f576101c4565b806379ba5097146103e15780638da5cb5b146103eb57806395d89b4114610409576101c4565b80633bc5de30116101665780635a09007b116101405780635a09007b146103215780636352211e1461035157806370a0823114610381578063768d8b5e146103b1576101c4565b80633bc5de30146102cb57806342842e0e146102e95780634cc8221514610305576101c4565b8063095ea7b3116101a2578063095ea7b3146102475780630ca7617514610263578063237850271461027f57806323b872dd146102af576101c4565b806301ffc9a7146101c957806306fdde03146101f9578063081812fc14610217575b600080fd5b6101e360048036038101906101de9190613dc5565b6105b4565b6040516101f09190613e0d565b60405180910390f35b610201610615565b60405161020e9190613eb8565b60405180910390f35b610231600480360381019061022c9190613f10565b6106a7565b60405161023e9190613f7e565b60405180910390f35b610261600480360381019061025c9190613fc5565b6106ed565b005b61027d60048036038101906102789190614170565b610804565b005b61029960048036038101906102949190614277565b6108c6565b6040516102a691906142d9565b60405180910390f35b6102c960048036038101906102c491906142f4565b6109ad565b005b6102d3610a0d565b6040516102e09190613eb8565b60405180910390f35b61030360048036038101906102fe91906142f4565b610a9b565b005b61031f600480360381019061031a9190613f10565b610abb565b005b61033b600480360381019061033691906143e8565b610b82565b60405161034891906144fe565b60405180910390f35b61036b60048036038101906103669190613f10565b610cfa565b6040516103789190613f7e565b60405180910390f35b61039b60048036038101906103969190614519565b610d80565b6040516103a891906144fe565b60405180910390f35b6103cb60048036038101906103c69190614546565b610e37565b6040516103d891906145f7565b60405180910390f35b6103e961115c565b005b6103f36112f3565b6040516104009190613f7e565b60405180910390f35b61041161131d565b60405161041e9190613eb8565b60405180910390f35b610441600480360381019061043c9190614645565b6113af565b005b61044b6113c5565b6040516104589190614811565b60405180910390f35b610469611630565b6040516104769190614892565b60405180910390f35b610499600480360381019061049491906148ad565b611656565b005b6104a36116b8565b6040516104b09190613eb8565b60405180910390f35b6104d360048036038101906104ce9190613f10565b611746565b6040516104e09190613eb8565b60405180910390f35b61050360048036038101906104fe9190613f10565b611858565b6040516105139493929190614930565b60405180910390f35b61053660048036038101906105319190614519565b611a50565b005b610552600480360381019061054d919061498a565b611a9c565b60405161055f9190613e0d565b60405180910390f35b610582600480360381019061057d9190614519565b611b30565b005b61059e60048036038101906105999190613f10565b611b44565b6040516105ab9190614a3b565b60405180910390f35b6000634906490660e01b7bffffffffffffffffffffffffffffffffffffffffffffffffffffffff1916827bffffffffffffffffffffffffffffffffffffffffffffffffffffffff1916148061060e575061060d82611d8c565b5b9050919050565b60606000805461062490614a8c565b80601f016020809104026020016040519081016040528092919081815260200182805461065090614a8c565b801561069d5780601f106106725761010080835404028352916020019161069d565b820191906000526020600020905b81548152906001019060200180831161068057829003601f168201915b5050505050905090565b60006106b282611e6e565b6004600083815260200190815260200160002060009054906101000a900473ffffffffffffffffffffffffffffffffffffffff169050919050565b60006106f882610cfa565b90508073ffffffffffffffffffffffffffffffffffffffff168373ffffffffffffffffffffffffffffffffffffffff1603610768576040517f08c379a000000000000000000000000000000000000000000000000000000000815260040161075f90614b2f565b60405180910390fd5b8073ffffffffffffffffffffffffffffffffffffffff16610787611eb9565b73ffffffffffffffffffffffffffffffffffffffff1614806107b657506107b5816107b0611eb9565b611a9c565b5b6107f5576040517f08c379a00000000000000000000000000000000000000000000000000000000081526004016107ec90614bc1565b60405180910390fd5b6107ff8383611ec1565b505050565b7f000000000000000000000000000000000000000000000000000000000000000073ffffffffffffffffffffffffffffffffffffffff163373ffffffffffffffffffffffffffffffffffffffff1614610889576040517fc6829f8300000000000000000000000000000000000000000000000000000000815260040160405180910390fd5b610894838383611f7a565b827f85e1543bf2f84fe80c6badbce3648c8539ad1df4d2b3d822938ca0538be727e660405160405180910390a2505050565b60006108d0613c12565b6109563073ffffffffffffffffffffffffffffffffffffffff16633bc5de306040518163ffffffff1660e01b8152600401600060405180830381865afa15801561091e573d6000803e3d6000fd5b505050506040513d6000823e3d601f19601f820116820180604052508101906109479190614c51565b8261200f90919063ffffffff16565b61096a61096282612020565b868686612430565b91507f24a5d69f0e061297f5ad1cfb60d3bcfbde0095cd44739922aec5a683544ecb3b428360405161099d929190614c9a565b60405180910390a1509392505050565b6109be6109b8611eb9565b82612513565b6109fd576040517f08c379a00000000000000000000000000000000000000000000000000000000081526004016109f490614d35565b60405180910390fd5b610a088383836125a8565b505050565b60098054610a1a90614a8c565b80601f0160208091040260200160405190810160405280929190818152602001828054610a4690614a8c565b8015610a935780601f10610a6857610100808354040283529160200191610a93565b820191906000526020600020905b815481529060010190602001808311610a7657829003601f168201915b505050505081565b610ab683838360405180602001604052806000815250611656565b505050565b610ac36128a1565b610acc81612933565b600d8181548110610ae057610adf614d55565b5b9060005260206000209060040201600080820160006101000a81549073ffffffffffffffffffffffffffffffffffffffff0219169055600182016000610b269190613c84565b600282016000610b369190613c84565b600382016000610b469190613c84565b50507fda823045d73fd00466a03f71fcdedec54c8f2a70f3e1a6271f6f19b3d1e58d7581604051610b7791906144fe565b60405180910390a150565b600080610b8f600a612986565b9050610b9b3382612994565b610ba58188612bb1565b600d60405180608001604052803373ffffffffffffffffffffffffffffffffffffffff16815260200187815260200186815260200185815250908060018154018082558091505060019003906000526020600020906004020160009091909190915060008201518160000160006101000a81548173ffffffffffffffffffffffffffffffffffffffff021916908373ffffffffffffffffffffffffffffffffffffffff1602179055506020820151816001019081610c639190614f26565b506040820151816002019081610c799190614f26565b506060820151816003019081610c8f9190614f26565b505050803373ffffffffffffffffffffffffffffffffffffffff167f0ebd0c547e55e6c673bf2fbf3ec9327af567ebcc120ce1faa5f02ca5a83282e98989604051610cdb929190614ff8565b60405180910390a3610ced600a612c55565b8091505095945050505050565b600080610d0683612c6b565b9050600073ffffffffffffffffffffffffffffffffffffffff168173ffffffffffffffffffffffffffffffffffffffff1603610d77576040517f08c379a0000000000000000000000000000000000000000000000000000000008152600401610d6e9061507b565b60405180910390fd5b80915050919050565b60008073ffffffffffffffffffffffffffffffffffffffff168273ffffffffffffffffffffffffffffffffffffffff1603610df0576040517f08c379a0000000000000000000000000000000000000000000000000000000008152600401610de79061510d565b60405180910390fd5b600360008373ffffffffffffffffffffffffffffffffffffffff1673ffffffffffffffffffffffffffffffffffffffff168152602001908152602001600020549050919050565b60606000600d8381548110610e4f57610e4e614d55565b5b90600052602060002090600402016040518060800160405290816000820160009054906101000a900473ffffffffffffffffffffffffffffffffffffffff1673ffffffffffffffffffffffffffffffffffffffff1673ffffffffffffffffffffffffffffffffffffffff168152602001600182018054610ece90614a8c565b80601f0160208091040260200160405190810160405280929190818152602001828054610efa90614a8c565b8015610f475780601f10610f1c57610100808354040283529160200191610f47565b820191906000526020600020905b815481529060010190602001808311610f2a57829003601f168201915b50505050508152602001600282018054610f6090614a8c565b80601f0160208091040260200160405190810160405280929190818152602001828054610f8c90614a8c565b8015610fd95780601f10610fae57610100808354040283529160200191610fd9565b820191906000526020600020905b815481529060010190602001808311610fbc57829003601f168201915b50505050508152602001600382018054610ff290614a8c565b80601f016020809104026020016040519081016040528092919081815260200182805461101e90614a8c565b801561106b5780601f106110405761010080835404028352916020019161106b565b820191906000526020600020905b81548152906001019060200180831161104e57829003601f168201915b505050505081525050905060008482606001518360200151846040015160405160200161109b949392919061518f565b60405160208183030381529060405290506000819050600b60009054906101000a900473ffffffffffffffffffffffffffffffffffffffff1673ffffffffffffffffffffffffffffffffffffffff16636b0bac97826040518263ffffffff1660e01b815260040161110c91906145f7565b6020604051808303816000875af115801561112b573d6000803e3d6000fd5b505050506040513d601f19601f8201168201806040525081019061114f919061520f565b5080935050505092915050565b600860009054906101000a900473ffffffffffffffffffffffffffffffffffffffff1673ffffffffffffffffffffffffffffffffffffffff163373ffffffffffffffffffffffffffffffffffffffff16146111ec576040517f08c379a00000000000000000000000000000000000000000000000000000000081526004016111e390615288565b60405180910390fd5b6000600760009054906101000a900473ffffffffffffffffffffffffffffffffffffffff16905033600760006101000a81548173ffffffffffffffffffffffffffffffffffffffff021916908373ffffffffffffffffffffffffffffffffffffffff1602179055506000600860006101000a81548173ffffffffffffffffffffffffffffffffffffffff021916908373ffffffffffffffffffffffffffffffffffffffff1602179055503373ffffffffffffffffffffffffffffffffffffffff168173ffffffffffffffffffffffffffffffffffffffff167f8be0079c531659141344cd1fd0a4f28419497f9722a3daafe3b4186f6b6457e060405160405180910390a350565b6000600760009054906101000a900473ffffffffffffffffffffffffffffffffffffffff16905090565b60606001805461132c90614a8c565b80601f016020809104026020016040519081016040528092919081815260200182805461135890614a8c565b80156113a55780601f1061137a576101008083540402835291602001916113a5565b820191906000526020600020905b81548152906001019060200180831161138857829003601f168201915b5050505050905090565b6113c16113ba611eb9565b8383612ca8565b5050565b6060600d805480602002602001604051908101604052809291908181526020016000905b8282101561162757838290600052602060002090600402016040518060800160405290816000820160009054906101000a900473ffffffffffffffffffffffffffffffffffffffff1673ffffffffffffffffffffffffffffffffffffffff1673ffffffffffffffffffffffffffffffffffffffff16815260200160018201805461147290614a8c565b80601f016020809104026020016040519081016040528092919081815260200182805461149e90614a8c565b80156114eb5780601f106114c0576101008083540402835291602001916114eb565b820191906000526020600020905b8154815290600101906020018083116114ce57829003601f168201915b5050505050815260200160028201805461150490614a8c565b80601f016020809104026020016040519081016040528092919081815260200182805461153090614a8c565b801561157d5780601f106115525761010080835404028352916020019161157d565b820191906000526020600020905b81548152906001019060200180831161156057829003601f168201915b5050505050815260200160038201805461159690614a8c565b80601f01602080910402602001604051908101604052809291908181526020018280546115c290614a8c565b801561160f5780601f106115e45761010080835404028352916020019161160f565b820191906000526020600020905b8154815290600101906020018083116115f257829003601f168201915b505050505081525050815260200190600101906113e9565b50505050905090565b600b60009054906101000a900473ffffffffffffffffffffffffffffffffffffffff1681565b611667611661611eb9565b83612513565b6116a6576040517f08c379a000000000000000000000000000000000000000000000000000000000815260040161169d90614d35565b60405180910390fd5b6116b284848484612e14565b50505050565b600e80546116c590614a8c565b80601f01602080910402602001604051908101604052809291908181526020018280546116f190614a8c565b801561173e5780601f106117135761010080835404028352916020019161173e565b820191906000526020600020905b81548152906001019060200180831161172157829003601f168201915b505050505081565b606061175182611e6e565b600060066000848152602001908152602001600020805461177190614a8c565b80601f016020809104026020016040519081016040528092919081815260200182805461179d90614a8c565b80156117ea5780601f106117bf576101008083540402835291602001916117ea565b820191906000526020600020905b8154815290600101906020018083116117cd57829003601f168201915b5050505050905060006117fb612e70565b90506000815103611810578192505050611853565b60008251111561184557808260405160200161182d9291906152a8565b60405160208183030381529060405292505050611853565b61184e84612e87565b925050505b919050565b600d818154811061186857600080fd5b90600052602060002090600402016000915090508060000160009054906101000a900473ffffffffffffffffffffffffffffffffffffffff16908060010180546118b190614a8c565b80601f01602080910402602001604051908101604052809291908181526020018280546118dd90614a8c565b801561192a5780601f106118ff5761010080835404028352916020019161192a565b820191906000526020600020905b81548152906001019060200180831161190d57829003601f168201915b50505050509080600201805461193f90614a8c565b80601f016020809104026020016040519081016040528092919081815260200182805461196b90614a8c565b80156119b85780601f1061198d576101008083540402835291602001916119b8565b820191906000526020600020905b81548152906001019060200180831161199b57829003601f168201915b5050505050908060030180546119cd90614a8c565b80601f01602080910402602001604051908101604052809291908181526020018280546119f990614a8c565b8015611a465780601f10611a1b57610100808354040283529160200191611a46565b820191906000526020600020905b815481529060010190602001808311611a2957829003601f168201915b5050505050905084565b611a586128a1565b80600c60006101000a81548173ffffffffffffffffffffffffffffffffffffffff021916908373ffffffffffffffffffffffffffffffffffffffff16021790555050565b6000600560008473ffffffffffffffffffffffffffffffffffffffff1673ffffffffffffffffffffffffffffffffffffffff16815260200190815260200160002060008373ffffffffffffffffffffffffffffffffffffffff1673ffffffffffffffffffffffffffffffffffffffff16815260200190815260200160002060009054906101000a900460ff16905092915050565b611b386128a1565b611b4181612eef565b50565b611b4c613cc4565b600d8281548110611b6057611b5f614d55565b5b90600052602060002090600402016040518060800160405290816000820160009054906101000a900473ffffffffffffffffffffffffffffffffffffffff1673ffffffffffffffffffffffffffffffffffffffff1673ffffffffffffffffffffffffffffffffffffffff168152602001600182018054611bdf90614a8c565b80601f0160208091040260200160405190810160405280929190818152602001828054611c0b90614a8c565b8015611c585780601f10611c2d57610100808354040283529160200191611c58565b820191906000526020600020905b815481529060010190602001808311611c3b57829003601f168201915b50505050508152602001600282018054611c7190614a8c565b80601f0160208091040260200160405190810160405280929190818152602001828054611c9d90614a8c565b8015611cea5780601f10611cbf57610100808354040283529160200191611cea565b820191906000526020600020905b815481529060010190602001808311611ccd57829003601f168201915b50505050508152602001600382018054611d0390614a8c565b80601f0160208091040260200160405190810160405280929190818152602001828054611d2f90614a8c565b8015611d7c5780601f10611d5157610100808354040283529160200191611d7c565b820191906000526020600020905b815481529060010190602001808311611d5f57829003601f168201915b5050505050815250509050919050565b60007f80ac58cd000000000000000000000000000000000000000000000000000000007bffffffffffffffffffffffffffffffffffffffffffffffffffffffff1916827bffffffffffffffffffffffffffffffffffffffffffffffffffffffff19161480611e5757507f5b5e139f000000000000000000000000000000000000000000000000000000007bffffffffffffffffffffffffffffffffffffffffffffffffffffffff1916827bffffffffffffffffffffffffffffffffffffffffffffffffffffffff1916145b80611e675750611e668261301d565b5b9050919050565b611e7781613087565b611eb6576040517f08c379a0000000000000000000000000000000000000000000000000000000008152600401611ead9061507b565b60405180910390fd5b50565b600033905090565b816004600083815260200190815260200160002060006101000a81548173ffffffffffffffffffffffffffffffffffffffff021916908373ffffffffffffffffffffffffffffffffffffffff160217905550808273ffffffffffffffffffffffffffffffffffffffff16611f3483610cfa565b73ffffffffffffffffffffffffffffffffffffffff167f8c5be1e5ebec7d5bd14f71427d1e84f3dd0314c0f7b2291e5b200ac8c7c3b92560405160405180910390a45050565b6000815114611fc057806040517f08c379a0000000000000000000000000000000000000000000000000000000008152600401611fb79190613eb8565b60405180910390fd5b81600e9081611fcf9190614f26565b507f38944c35fa87deb6b9e51ddf2077c0341c4fe34dbbdf0098f3f9d7603e7eb511600e42604051612002929190615350565b60405180910390a1505050565b61201c82600080846130c8565b5050565b6060600061202f610100613172565b90506120796040518060400160405280600c81526020017f636f64654c6f636174696f6e00000000000000000000000000000000000000008152508261319990919063ffffffff16565b6120a28360000151600281111561209357612092615380565b5b826131c290919063ffffffff16565b6120ea6040518060400160405280600881526020017f6c616e67756167650000000000000000000000000000000000000000000000008152508261319990919063ffffffff16565b6121138360400151600081111561210457612103615380565b5b826131c290919063ffffffff16565b61215b6040518060400160405280600681526020017f736f7572636500000000000000000000000000000000000000000000000000008152508261319990919063ffffffff16565b61217283606001518261319990919063ffffffff16565b60008360a00151511115612228576121c86040518060400160405280600481526020017f61726773000000000000000000000000000000000000000000000000000000008152508261319990919063ffffffff16565b6121d181613212565b60005b8360a001515181101561221d576122128460a0015182815181106121fb576121fa614d55565b5b60200260200101518361319990919063ffffffff16565b8060010190506121d4565b506122278161323a565b5b60008360800151511115612369576000600281111561224a57612249615380565b5b8360200151600281111561226157612260615380565b5b03612298576040517fa80d31f700000000000000000000000000000000000000000000000000000000815260040160405180910390fd5b6122e06040518060400160405280600f81526020017f736563726574734c6f636174696f6e00000000000000000000000000000000008152508261319990919063ffffffff16565b612309836020015160028111156122fa576122f9615380565b5b826131c290919063ffffffff16565b6123516040518060400160405280600781526020017f73656372657473000000000000000000000000000000000000000000000000008152508261319990919063ffffffff16565b61236883608001518261326290919063ffffffff16565b5b60008360c0015151111561241f576123bf6040518060400160405280600981526020017f62797465734172677300000000000000000000000000000000000000000000008152508261319990919063ffffffff16565b6123c881613212565b60005b8360c0015151811015612414576124098460c0015182815181106123f2576123f1614d55565b5b60200260200101518361326290919063ffffffff16565b8060010190506123cb565b5061241e8161323a565b5b806000015160000151915050919050565b6000807f000000000000000000000000000000000000000000000000000000000000000073ffffffffffffffffffffffffffffffffffffffff1663461d27628688600188886040518663ffffffff1660e01b81526004016124959594939291906153ea565b6020604051808303816000875af11580156124b4573d6000803e3d6000fd5b505050506040513d601f19601f820116820180604052508101906124d8919061520f565b9050807f1131472297a800fee664d1d89cfa8f7676ff07189ecc53f80bbb5f4969099db860405160405180910390a280915050949350505050565b60008061251f83610cfa565b90508073ffffffffffffffffffffffffffffffffffffffff168473ffffffffffffffffffffffffffffffffffffffff16148061256157506125608185611a9c565b5b8061259f57508373ffffffffffffffffffffffffffffffffffffffff16612587846106a7565b73ffffffffffffffffffffffffffffffffffffffff16145b91505092915050565b8273ffffffffffffffffffffffffffffffffffffffff166125c882610cfa565b73ffffffffffffffffffffffffffffffffffffffff161461261e576040517f08c379a0000000000000000000000000000000000000000000000000000000008152600401612615906154b6565b60405180910390fd5b600073ffffffffffffffffffffffffffffffffffffffff168273ffffffffffffffffffffffffffffffffffffffff160361268d576040517f08c379a000000000000000000000000000000000000000000000000000000000815260040161268490615548565b60405180910390fd5b61269a838383600161328b565b8273ffffffffffffffffffffffffffffffffffffffff166126ba82610cfa565b73ffffffffffffffffffffffffffffffffffffffff1614612710576040517f08c379a0000000000000000000000000000000000000000000000000000000008152600401612707906154b6565b60405180910390fd5b6004600082815260200190815260200160002060006101000a81549073ffffffffffffffffffffffffffffffffffffffff02191690556001600360008573ffffffffffffffffffffffffffffffffffffffff1673ffffffffffffffffffffffffffffffffffffffff168152602001908152602001600020600082825403925050819055506001600360008473ffffffffffffffffffffffffffffffffffffffff1673ffffffffffffffffffffffffffffffffffffffff16815260200190815260200160002060008282540192505081905550816002600083815260200190815260200160002060006101000a81548173ffffffffffffffffffffffffffffffffffffffff021916908373ffffffffffffffffffffffffffffffffffffffff160217905550808273ffffffffffffffffffffffffffffffffffffffff168473ffffffffffffffffffffffffffffffffffffffff167fddf252ad1be2c89b69c2b068fc378daa952ba7f163c4a11628f55a4df523b3ef60405160405180910390a461289c8383836001613291565b505050565b600760009054906101000a900473ffffffffffffffffffffffffffffffffffffffff1673ffffffffffffffffffffffffffffffffffffffff163373ffffffffffffffffffffffffffffffffffffffff1614612931576040517f08c379a0000000000000000000000000000000000000000000000000000000008152600401612928906155b4565b60405180910390fd5b565b61293c81613297565b600060066000838152602001908152602001600020805461295c90614a8c565b905014612983576006600082815260200190815260200160002060006129829190613c84565b5b50565b600081600001549050919050565b600073ffffffffffffffffffffffffffffffffffffffff168273ffffffffffffffffffffffffffffffffffffffff1603612a03576040517f08c379a00000000000000000000000000000000000000000000000000000000081526004016129fa90615620565b60405180910390fd5b612a0c81613087565b15612a4c576040517f08c379a0000000000000000000000000000000000000000000000000000000008152600401612a439061568c565b60405180910390fd5b612a5a60008383600161328b565b612a6381613087565b15612aa3576040517f08c379a0000000000000000000000000000000000000000000000000000000008152600401612a9a9061568c565b60405180910390fd5b6001600360008473ffffffffffffffffffffffffffffffffffffffff1673ffffffffffffffffffffffffffffffffffffffff16815260200190815260200160002060008282540192505081905550816002600083815260200190815260200160002060006101000a81548173ffffffffffffffffffffffffffffffffffffffff021916908373ffffffffffffffffffffffffffffffffffffffff160217905550808273ffffffffffffffffffffffffffffffffffffffff16600073ffffffffffffffffffffffffffffffffffffffff167fddf252ad1be2c89b69c2b068fc378daa952ba7f163c4a11628f55a4df523b3ef60405160405180910390a4612bad600083836001613291565b5050565b612bba82613087565b612bf9576040517f08c379a0000000000000000000000000000000000000000000000000000000008152600401612bf09061571e565b60405180910390fd5b80600660008481526020019081526020016000209081612c199190614f26565b507ff8e1a15aba9398e019f0b49df1a4fde98ee17ae345cb5f6b5e2c27f5033e8ce782604051612c4991906144fe565b60405180910390a15050565b6001816000016000828254019250508190555050565b60006002600083815260200190815260200160002060009054906101000a900473ffffffffffffffffffffffffffffffffffffffff169050919050565b8173ffffffffffffffffffffffffffffffffffffffff168373ffffffffffffffffffffffffffffffffffffffff1603612d16576040517f08c379a0000000000000000000000000000000000000000000000000000000008152600401612d0d9061578a565b60405180910390fd5b80600560008573ffffffffffffffffffffffffffffffffffffffff1673ffffffffffffffffffffffffffffffffffffffff16815260200190815260200160002060008473ffffffffffffffffffffffffffffffffffffffff1673ffffffffffffffffffffffffffffffffffffffff16815260200190815260200160002060006101000a81548160ff0219169083151502179055508173ffffffffffffffffffffffffffffffffffffffff168373ffffffffffffffffffffffffffffffffffffffff167f17307eab39ab6107e8899845ad3d59bd9653f200f220920489ca2b5937696c3183604051612e079190613e0d565b60405180910390a3505050565b612e1f8484846125a8565b612e2b848484846133e5565b612e6a576040517f08c379a0000000000000000000000000000000000000000000000000000000008152600401612e619061581c565b60405180910390fd5b50505050565b606060405180602001604052806000815250905090565b6060612e9282611e6e565b6000612e9c612e70565b90506000815111612ebc5760405180602001604052806000815250612ee7565b80612ec68461356c565b604051602001612ed79291906152a8565b6040516020818303038152906040525b915050919050565b3373ffffffffffffffffffffffffffffffffffffffff168173ffffffffffffffffffffffffffffffffffffffff1603612f5d576040517f08c379a0000000000000000000000000000000000000000000000000000000008152600401612f5490615888565b60405180910390fd5b80600860006101000a81548173ffffffffffffffffffffffffffffffffffffffff021916908373ffffffffffffffffffffffffffffffffffffffff1602179055508073ffffffffffffffffffffffffffffffffffffffff16600760009054906101000a900473ffffffffffffffffffffffffffffffffffffffff1673ffffffffffffffffffffffffffffffffffffffff167fed8889f560326eb138920d842192f0eb3dd22b4f139c87a2c57538e05bae127860405160405180910390a350565b60007f01ffc9a7000000000000000000000000000000000000000000000000000000007bffffffffffffffffffffffffffffffffffffffffffffffffffffffff1916827bffffffffffffffffffffffffffffffffffffffffffffffffffffffff1916149050919050565b60008073ffffffffffffffffffffffffffffffffffffffff166130a983612c6b565b73ffffffffffffffffffffffffffffffffffffffff1614159050919050565b6000815103613103576040517f22ce3edd00000000000000000000000000000000000000000000000000000000815260040160405180910390fd5b828460000190600281111561311b5761311a615380565b5b9081600281111561312f5761312e615380565b5b81525050818460400190600081111561314b5761314a615380565b5b9081600081111561315f5761315e615380565b5b8152505080846060018190525050505050565b61317a613d02565b61318881600001518361363a565b506000816020018181525050919050565b6131a682600383516136b3565b6131bd81836000015161385c90919063ffffffff16565b505050565b6131e460026005600660ff16901b17836000015161387890919063ffffffff16565b5061320e82826040516020016131fa91906144fe565b604051602081830303815290604052613262565b5050565b61321d8160046138e2565b60018160200181815161323091906158d7565b9150818152505050565b6132458160076138e2565b600181602001818151613258919061590b565b9150818152505050565b61326f82600283516136b3565b61328681836000015161385c90919063ffffffff16565b505050565b50505050565b50505050565b60006132a282610cfa565b90506132b281600084600161328b565b6132bb82610cfa565b90506004600083815260200190815260200160002060006101000a81549073ffffffffffffffffffffffffffffffffffffffff02191690556001600360008373ffffffffffffffffffffffffffffffffffffffff1673ffffffffffffffffffffffffffffffffffffffff168152602001908152602001600020600082825403925050819055506002600083815260200190815260200160002060006101000a81549073ffffffffffffffffffffffffffffffffffffffff021916905581600073ffffffffffffffffffffffffffffffffffffffff168273ffffffffffffffffffffffffffffffffffffffff167fddf252ad1be2c89b69c2b068fc378daa952ba7f163c4a11628f55a4df523b3ef60405160405180910390a46133e1816000846001613291565b5050565b60006134068473ffffffffffffffffffffffffffffffffffffffff16613908565b1561355f578373ffffffffffffffffffffffffffffffffffffffff1663150b7a0261342f611eb9565b8786866040518563ffffffff1660e01b8152600401613451949392919061593f565b6020604051808303816000875af192505050801561348d57506040513d601f19601f8201168201806040525081019061348a91906159a0565b60015b61350f573d80600081146134bd576040519150601f19603f3d011682016040523d82523d6000602084013e6134c2565b606091505b506000815103613507576040517f08c379a00000000000000000000000000000000000000000000000000000000081526004016134fe9061581c565b60405180910390fd5b805181602001fd5b63150b7a0260e01b7bffffffffffffffffffffffffffffffffffffffffffffffffffffffff1916817bffffffffffffffffffffffffffffffffffffffffffffffffffffffff191614915050613564565b600190505b949350505050565b60606000600161357b8461392b565b01905060008167ffffffffffffffff81111561359a57613599614045565b5b6040519080825280601f01601f1916602001820160405280156135cc5781602001600182028036833780820191505090505b509050600082602001820190505b60011561362f578080600190039150507f3031323334353637383961626364656600000000000000000000000000000000600a86061a8153600a8581613623576136226159cd565b5b049450600085036135da575b819350505050919050565b613642613d22565b600060208361365191906159fc565b1461367d5760208261366391906159fc565b602061366f919061590b565b8261367a91906158d7565b91505b8183602001818152505060405180845260008152828101602001818110156136a457600080fd5b80604052505082905092915050565b60178167ffffffffffffffff16116136ee576136e88160058460ff16901b60ff1617846000015161387890919063ffffffff16565b50613857565b60ff8167ffffffffffffffff161161374c57613721601860058460ff16901b17846000015161387890919063ffffffff16565b506137468167ffffffffffffffff1660018560000151613a7e9092919063ffffffff16565b50613856565b61ffff8167ffffffffffffffff16116137ab57613780601960058460ff16901b17846000015161387890919063ffffffff16565b506137a58167ffffffffffffffff1660028560000151613a7e9092919063ffffffff16565b50613855565b63ffffffff8167ffffffffffffffff161161380c576137e1601a60058460ff16901b17846000015161387890919063ffffffff16565b506138068167ffffffffffffffff1660048560000151613a7e9092919063ffffffff16565b50613854565b61382d601b60058460ff16901b17846000015161387890919063ffffffff16565b506138528167ffffffffffffffff1660088560000151613a7e9092919063ffffffff16565b505b5b5b5b505050565b613864613d22565b61387083838451613b0b565b905092915050565b613880613d22565b60008360000151519050600060018261389991906158d7565b9050846020015182106138bd576138bc856002836138b79190615a2d565b613bee565b5b845160208382010185815381518311156138d5578282525b5050849250505092915050565b613903601f60058360ff16901b17836000015161387890919063ffffffff16565b505050565b6000808273ffffffffffffffffffffffffffffffffffffffff163b119050919050565b600080600090507a184f03e93ff9f4daa797ed6e38ed64bf6a1f0100000000000000008310613989577a184f03e93ff9f4daa797ed6e38ed64bf6a1f010000000000000000838161397f5761397e6159cd565b5b0492506040810190505b6d04ee2d6d415b85acef810000000083106139c6576d04ee2d6d415b85acef810000000083816139bc576139bb6159cd565b5b0492506020810190505b662386f26fc1000083106139f557662386f26fc1000083816139eb576139ea6159cd565b5b0492506010810190505b6305f5e1008310613a1e576305f5e1008381613a1457613a136159cd565b5b0492506008810190505b6127108310613a43576127108381613a3957613a386159cd565b5b0492506004810190505b60648310613a665760648381613a5c57613a5b6159cd565b5b0492506002810190505b600a8310613a75576001810190505b80915050919050565b613a86613d22565b6000846000015151905060008184613a9e91906158d7565b90508560200151811115613ac357613ac286600283613abd9190615a2d565b613bee565b5b6000600185610100613ad59190615ba2565b613adf919061590b565b905086518281018783198251161781528151841115613afc578382525b50508693505050509392505050565b613b13613d22565b8251821115613b2157600080fd5b6000846000015151905060008382613b3991906158d7565b90508560200151811115613b5e57613b5d86600283613b589190615a2d565b613bee565b5b60008087518051856020830101935080851115613b79578482525b60208901925050505b60208610613bc05780518252602082613b9b91906158d7565b9150602081613baa91906158d7565b9050602086613bb9919061590b565b9550613b82565b60006001876020036101000a0390508019825116818451168181178552505050879450505050509392505050565b600082600001519050613c01838361363a565b50613c0c838261385c565b50505050565b6040518060e0016040528060006002811115613c3157613c30615380565b5b815260200160006002811115613c4a57613c49615380565b5b8152602001600080811115613c6257613c61615380565b5b8152602001606081526020016060815260200160608152602001606081525090565b508054613c9090614a8c565b6000825580601f10613ca25750613cc1565b601f016020900490600052602060002090810190613cc09190613d3c565b5b50565b6040518060800160405280600073ffffffffffffffffffffffffffffffffffffffff1681526020016060815260200160608152602001606081525090565b6040518060400160405280613d15613d22565b8152602001600081525090565b604051806040016040528060608152602001600081525090565b5b80821115613d55576000816000905550600101613d3d565b5090565b6000604051905090565b600080fd5b600080fd5b60007fffffffff0000000000000000000000000000000000000000000000000000000082169050919050565b613da281613d6d565b8114613dad57600080fd5b50565b600081359050613dbf81613d99565b92915050565b600060208284031215613ddb57613dda613d63565b5b6000613de984828501613db0565b91505092915050565b60008115159050919050565b613e0781613df2565b82525050565b6000602082019050613e226000830184613dfe565b92915050565b600081519050919050565b600082825260208201905092915050565b60005b83811015613e62578082015181840152602081019050613e47565b60008484015250505050565b6000601f19601f8301169050919050565b6000613e8a82613e28565b613e948185613e33565b9350613ea4818560208601613e44565b613ead81613e6e565b840191505092915050565b60006020820190508181036000830152613ed28184613e7f565b905092915050565b6000819050919050565b613eed81613eda565b8114613ef857600080fd5b50565b600081359050613f0a81613ee4565b92915050565b600060208284031215613f2657613f25613d63565b5b6000613f3484828501613efb565b91505092915050565b600073ffffffffffffffffffffffffffffffffffffffff82169050919050565b6000613f6882613f3d565b9050919050565b613f7881613f5d565b82525050565b6000602082019050613f936000830184613f6f565b92915050565b613fa281613f5d565b8114613fad57600080fd5b50565b600081359050613fbf81613f99565b92915050565b60008060408385031215613fdc57613fdb613d63565b5b6000613fea85828601613fb0565b9250506020613ffb85828601613efb565b9150509250929050565b6000819050919050565b61401881614005565b811461402357600080fd5b50565b6000813590506140358161400f565b92915050565b600080fd5b600080fd5b7f4e487b7100000000000000000000000000000000000000000000000000000000600052604160045260246000fd5b61407d82613e6e565b810181811067ffffffffffffffff8211171561409c5761409b614045565b5b80604052505050565b60006140af613d59565b90506140bb8282614074565b919050565b600067ffffffffffffffff8211156140db576140da614045565b5b6140e482613e6e565b9050602081019050919050565b82818337600083830152505050565b600061411361410e846140c0565b6140a5565b90508281526020810184848401111561412f5761412e614040565b5b61413a8482856140f1565b509392505050565b600082601f8301126141575761415661403b565b5b8135614167848260208601614100565b91505092915050565b60008060006060848603121561418957614188613d63565b5b600061419786828701614026565b935050602084013567ffffffffffffffff8111156141b8576141b7613d68565b5b6141c486828701614142565b925050604084013567ffffffffffffffff8111156141e5576141e4613d68565b5b6141f186828701614142565b9150509250925092565b600067ffffffffffffffff82169050919050565b614218816141fb565b811461422357600080fd5b50565b6000813590506142358161420f565b92915050565b600063ffffffff82169050919050565b6142548161423b565b811461425f57600080fd5b50565b6000813590506142718161424b565b92915050565b6000806000606084860312156142905761428f613d63565b5b600061429e86828701614226565b93505060206142af86828701614262565b92505060406142c086828701614026565b9150509250925092565b6142d381614005565b82525050565b60006020820190506142ee60008301846142ca565b92915050565b60008060006060848603121561430d5761430c613d63565b5b600061431b86828701613fb0565b935050602061432c86828701613fb0565b925050604061433d86828701613efb565b9150509250925092565b600067ffffffffffffffff82111561436257614361614045565b5b61436b82613e6e565b9050602081019050919050565b600061438b61438684614347565b6140a5565b9050828152602081018484840111156143a7576143a6614040565b5b6143b28482856140f1565b509392505050565b600082601f8301126143cf576143ce61403b565b5b81356143df848260208601614378565b91505092915050565b600080600080600060a0868803121561440457614403613d63565b5b600086013567ffffffffffffffff81111561442257614421613d68565b5b61442e888289016143ba565b955050602086013567ffffffffffffffff81111561444f5761444e613d68565b5b61445b888289016143ba565b945050604086013567ffffffffffffffff81111561447c5761447b613d68565b5b614488888289016143ba565b935050606086013567ffffffffffffffff8111156144a9576144a8613d68565b5b6144b5888289016143ba565b925050608086013567ffffffffffffffff8111156144d6576144d5613d68565b5b6144e2888289016143ba565b9150509295509295909350565b6144f881613eda565b82525050565b600060208201905061451360008301846144ef565b92915050565b60006020828403121561452f5761452e613d63565b5b600061453d84828501613fb0565b91505092915050565b6000806040838503121561455d5761455c613d63565b5b600083013567ffffffffffffffff81111561457b5761457a613d68565b5b614587858286016143ba565b925050602061459885828601613efb565b9150509250929050565b600081519050919050565b600082825260208201905092915050565b60006145c9826145a2565b6145d381856145ad565b93506145e3818560208601613e44565b6145ec81613e6e565b840191505092915050565b6000602082019050818103600083015261461181846145be565b905092915050565b61462281613df2565b811461462d57600080fd5b50565b60008135905061463f81614619565b92915050565b6000806040838503121561465c5761465b613d63565b5b600061466a85828601613fb0565b925050602061467b85828601614630565b9150509250929050565b600081519050919050565b600082825260208201905092915050565b6000819050602082019050919050565b6146ba81613f5d565b82525050565b600082825260208201905092915050565b60006146dc82613e28565b6146e681856146c0565b93506146f6818560208601613e44565b6146ff81613e6e565b840191505092915050565b600060808301600083015161472260008601826146b1565b506020830151848203602086015261473a82826146d1565b9150506040830151848203604086015261475482826146d1565b9150506060830151848203606086015261476e82826146d1565b9150508091505092915050565b6000614787838361470a565b905092915050565b6000602082019050919050565b60006147a782614685565b6147b18185614690565b9350836020820285016147c3856146a1565b8060005b858110156147ff57848403895281516147e0858261477b565b94506147eb8361478f565b925060208a019950506001810190506147c7565b50829750879550505050505092915050565b6000602082019050818103600083015261482b818461479c565b905092915050565b6000819050919050565b600061485861485361484e84613f3d565b614833565b613f3d565b9050919050565b600061486a8261483d565b9050919050565b600061487c8261485f565b9050919050565b61488c81614871565b82525050565b60006020820190506148a76000830184614883565b92915050565b600080600080608085870312156148c7576148c6613d63565b5b60006148d587828801613fb0565b94505060206148e687828801613fb0565b93505060406148f787828801613efb565b925050606085013567ffffffffffffffff81111561491857614917613d68565b5b61492487828801614142565b91505092959194509250565b60006080820190506149456000830187613f6f565b81810360208301526149578186613e7f565b9050818103604083015261496b8185613e7f565b9050818103606083015261497f8184613e7f565b905095945050505050565b600080604083850312156149a1576149a0613d63565b5b60006149af85828601613fb0565b92505060206149c085828601613fb0565b9150509250929050565b60006080830160008301516149e260008601826146b1565b50602083015184820360208601526149fa82826146d1565b91505060408301518482036040860152614a1482826146d1565b91505060608301518482036060860152614a2e82826146d1565b9150508091505092915050565b60006020820190508181036000830152614a5581846149ca565b905092915050565b7f4e487b7100000000000000000000000000000000000000000000000000000000600052602260045260246000fd5b60006002820490506001821680614aa457607f821691505b602082108103614ab757614ab6614a5d565b5b50919050565b7f4552433732313a20617070726f76616c20746f2063757272656e74206f776e6560008201527f7200000000000000000000000000000000000000000000000000000000000000602082015250565b6000614b19602183613e33565b9150614b2482614abd565b604082019050919050565b60006020820190508181036000830152614b4881614b0c565b9050919050565b7f4552433732313a20617070726f76652063616c6c6572206973206e6f7420746f60008201527f6b656e206f776e6572206f7220617070726f76656420666f7220616c6c000000602082015250565b6000614bab603d83613e33565b9150614bb682614b4f565b604082019050919050565b60006020820190508181036000830152614bda81614b9e565b9050919050565b6000614bf4614bef84614347565b6140a5565b905082815260208101848484011115614c1057614c0f614040565b5b614c1b848285613e44565b509392505050565b600082601f830112614c3857614c3761403b565b5b8151614c48848260208601614be1565b91505092915050565b600060208284031215614c6757614c66613d63565b5b600082015167ffffffffffffffff811115614c8557614c84613d68565b5b614c9184828501614c23565b91505092915050565b6000604082019050614caf60008301856144ef565b614cbc60208301846142ca565b9392505050565b7f4552433732313a2063616c6c6572206973206e6f7420746f6b656e206f776e6560008201527f72206f7220617070726f76656400000000000000000000000000000000000000602082015250565b6000614d1f602d83613e33565b9150614d2a82614cc3565b604082019050919050565b60006020820190508181036000830152614d4e81614d12565b9050919050565b7f4e487b7100000000000000000000000000000000000000000000000000000000600052603260045260246000fd5b60008190508160005260206000209050919050565b60006020601f8301049050919050565b600082821b905092915050565b600060088302614de67fffffffffffffffffffffffffffffffffffffffffffffffffffffffffffffffff82614da9565b614df08683614da9565b95508019841693508086168417925050509392505050565b6000614e23614e1e614e1984613eda565b614833565b613eda565b9050919050565b6000819050919050565b614e3d83614e08565b614e51614e4982614e2a565b848454614db6565b825550505050565b600090565b614e66614e59565b614e71818484614e34565b505050565b5b81811015614e9557614e8a600082614e5e565b600181019050614e77565b5050565b601f821115614eda57614eab81614d84565b614eb484614d99565b81016020851015614ec3578190505b614ed7614ecf85614d99565b830182614e76565b50505b505050565b600082821c905092915050565b6000614efd60001984600802614edf565b1980831691505092915050565b6000614f168383614eec565b9150826002028217905092915050565b614f2f82613e28565b67ffffffffffffffff811115614f4857614f47614045565b5b614f528254614a8c565b614f5d828285614e99565b600060209050601f831160018114614f905760008415614f7e578287015190505b614f888582614f0a565b865550614ff0565b601f198416614f9e86614d84565b60005b82811015614fc657848901518255600182019150602085019450602081019050614fa1565b86831015614fe35784890151614fdf601f891682614eec565b8355505b6001600288020188555050505b505050505050565b600060408201905081810360008301526150128185613e7f565b905081810360208301526150268184613e7f565b90509392505050565b7f4552433732313a20696e76616c696420746f6b656e2049440000000000000000600082015250565b6000615065601883613e33565b91506150708261502f565b602082019050919050565b6000602082019050818103600083015261509481615058565b9050919050565b7f4552433732313a2061646472657373207a65726f206973206e6f74206120766160008201527f6c6964206f776e65720000000000000000000000000000000000000000000000602082015250565b60006150f7602983613e33565b91506151028261509b565b604082019050919050565b60006020820190508181036000830152615126816150ea565b9050919050565b600081905092915050565b600061514382613e28565b61514d818561512d565b935061515d818560208601613e44565b80840191505092915050565b7f2f00000000000000000000000000000000000000000000000000000000000000815250565b600061519b8287615138565b91506151a682615169565b6001820191506151b68286615138565b91506151c182615169565b6001820191506151d18285615138565b91506151dc82615169565b6001820191506151ec8284615138565b915081905095945050505050565b6000815190506152098161400f565b92915050565b60006020828403121561522557615224613d63565b5b6000615233848285016151fa565b91505092915050565b7f4d7573742062652070726f706f736564206f776e657200000000000000000000600082015250565b6000615272601683613e33565b915061527d8261523c565b602082019050919050565b600060208201905081810360008301526152a181615265565b9050919050565b60006152b48285615138565b91506152c08284615138565b91508190509392505050565b600081546152d981614a8c565b6152e38186613e33565b945060018216600081146152fe576001811461531457615347565b60ff198316865281151560200286019350615347565b61531d85614d84565b60005b8381101561533f57815481890152600182019150602081019050615320565b808801955050505b50505092915050565b6000604082019050818103600083015261536a81856152cc565b905061537960208301846144ef565b9392505050565b7f4e487b7100000000000000000000000000000000000000000000000000000000600052602160045260246000fd5b6153b8816141fb565b82525050565b600061ffff82169050919050565b6153d5816153be565b82525050565b6153e48161423b565b82525050565b600060a0820190506153ff60008301886153af565b818103602083015261541181876145be565b905061542060408301866153cc565b61542d60608301856153db565b61543a60808301846142ca565b9695505050505050565b7f4552433732313a207472616e736665722066726f6d20696e636f72726563742060008201527f6f776e6572000000000000000000000000000000000000000000000000000000602082015250565b60006154a0602583613e33565b91506154ab82615444565b604082019050919050565b600060208201905081810360008301526154cf81615493565b9050919050565b7f4552433732313a207472616e7366657220746f20746865207a65726f2061646460008201527f7265737300000000000000000000000000000000000000000000000000000000602082015250565b6000615532602483613e33565b915061553d826154d6565b604082019050919050565b6000602082019050818103600083015261556181615525565b9050919050565b7f4f6e6c792063616c6c61626c65206279206f776e657200000000000000000000600082015250565b600061559e601683613e33565b91506155a982615568565b602082019050919050565b600060208201905081810360008301526155cd81615591565b9050919050565b7f4552433732313a206d696e7420746f20746865207a65726f2061646472657373600082015250565b600061560a602083613e33565b9150615615826155d4565b602082019050919050565b60006020820190508181036000830152615639816155fd565b9050919050565b7f4552433732313a20746f6b656e20616c7265616479206d696e74656400000000600082015250565b6000615676601c83613e33565b915061568182615640565b602082019050919050565b600060208201905081810360008301526156a581615669565b9050919050565b7f45524337323155524953746f726167653a2055524920736574206f66206e6f6e60008201527f6578697374656e7420746f6b656e000000000000000000000000000000000000602082015250565b6000615708602e83613e33565b9150615713826156ac565b604082019050919050565b60006020820190508181036000830152615737816156fb565b9050919050565b7f4552433732313a20617070726f766520746f2063616c6c657200000000000000600082015250565b6000615774601983613e33565b915061577f8261573e565b602082019050919050565b600060208201905081810360008301526157a381615767565b9050919050565b7f4552433732313a207472616e7366657220746f206e6f6e20455243373231526560008201527f63656976657220696d706c656d656e7465720000000000000000000000000000602082015250565b6000615806603283613e33565b9150615811826157aa565b604082019050919050565b60006020820190508181036000830152615835816157f9565b9050919050565b7f43616e6e6f74207472616e7366657220746f2073656c66000000000000000000600082015250565b6000615872601783613e33565b915061587d8261583c565b602082019050919050565b600060208201905081810360008301526158a181615865565b9050919050565b7f4e487b7100000000000000000000000000000000000000000000000000000000600052601160045260246000fd5b60006158e282613eda565b91506158ed83613eda565b9250828201905080821115615905576159046158a8565b5b92915050565b600061591682613eda565b915061592183613eda565b9250828203905081811115615939576159386158a8565b5b92915050565b60006080820190506159546000830187613f6f565b6159616020830186613f6f565b61596e60408301856144ef565b818103606083015261598081846145be565b905095945050505050565b60008151905061599a81613d99565b92915050565b6000602082840312156159b6576159b5613d63565b5b60006159c48482850161598b565b91505092915050565b7f4e487b7100000000000000000000000000000000000000000000000000000000600052601260045260246000fd5b6000615a0782613eda565b9150615a1283613eda565b925082615a2257615a216159cd565b5b828206905092915050565b6000615a3882613eda565b9150615a4383613eda565b9250828202615a5181613eda565b91508282048414831517615a6857615a676158a8565b5b5092915050565b60008160011c9050919050565b6000808291508390505b6001851115615ac657808604811115615aa257615aa16158a8565b5b6001851615615ab15780820291505b8081029050615abf85615a6f565b9450615a86565b94509492505050565b600082615adf5760019050615b9b565b81615aed5760009050615b9b565b8160018114615b035760028114615b0d57615b3c565b6001915050615b9b565b60ff841115615b1f57615b1e6158a8565b5b8360020a915084821115615b3657615b356158a8565b5b50615b9b565b5060208310610133831016604e8410600b8410161715615b715782820a905083811115615b6c57615b6b6158a8565b5b615b9b565b615b7e8484846001615a7c565b92509050818404811115615b9557615b946158a8565b5b81810290505b9392505050565b6000615bad82613eda565b9150615bb883613eda565b9250615be57fffffffffffffffffffffffffffffffffffffffffffffffffffffffffffffffff8484615acf565b90509291505056fea26469706673582212207032d8f79ecd3c45f21b3e5fc67ecf965b235392295aa4c24d59bb80bf04bb7664736f6c63430008190033636f6e7374206765744c616e6444657461696c7346726f6d536572766572203d2061776169742046756e6374696f6e732e6d616b654874747052657175657374287b75726c3a206068747470733a2f2f61677269637969656c642e76657263656c2e6170702f6170692f6c616e64602c7d293b72657475726e2046756e6374696f6e732e656e636f6465537472696e67286765744c616e6444657461696c7346726f6d5365727665722e64617461293b",
   "linkReferences": {},
   "deployedLinkReferences": {}
}