{
   "_format": "hh-sol-artifact-1",
   "contractName": "YieldLending",
   "sourceName": "contracts/YieldLending.sol",
   "abi": [
      {
         "inputs": [
            {
               "internalType": "address",
               "name": "yieldTokenAddress",
               "type": "address"
            },
            {
               "internalType": "address",
               "name": "usdc",
               "type": "address"
            },
            {
               "internalType": "address",
               "name": "usdcUsdAggregatorAddress",
               "type": "address"
            },
            {
               "internalType": "uint32",
               "name": "usdcUsdFeedHeartbeat",
               "type": "uint32"
            }
         ],
         "stateMutability": "nonpayable",
         "type": "constructor"
      },
      {
         "inputs": [
            {
               "internalType": "address",
               "name": "borrower",
               "type": "address"
            },
            {
               "internalType": "uint256",
               "name": "yieldId",
               "type": "uint256"
            }
         ],
         "name": "AlreadyBorrowed",
         "type": "error"
      },
      {
         "inputs": [],
         "name": "InvalidRoundId",
         "type": "error"
      },
      {
         "inputs": [],
         "name": "InvalidValuation",
         "type": "error"
      },
      {
         "inputs": [],
         "name": "NothingToRepay",
         "type": "error"
      },
      {
         "inputs": [],
         "name": "OnlyYieldTokenSupported",
         "type": "error"
      },
      {
         "inputs": [],
         "name": "PriceFeedDdosed",
         "type": "error"
      },
      {
         "inputs": [],
         "name": "SlippageToleranceExceeded",
         "type": "error"
      },
      {
         "inputs": [],
         "name": "StalePriceFeed",
         "type": "error"
      },
      {
         "anonymous": false,
         "inputs": [
            {
               "indexed": true,
               "internalType": "uint256",
               "name": "yieldId",
               "type": "uint256"
            },
            {
               "indexed": true,
               "internalType": "address",
               "name": "borrower",
               "type": "address"
            }
         ],
         "name": "LoanLiquidated",
         "type": "event"
      },
      {
         "anonymous": false,
         "inputs": [
            {
               "indexed": true,
               "internalType": "uint256",
               "name": "yieldId",
               "type": "uint256"
            },
            {
               "indexed": true,
               "internalType": "address",
               "name": "borrower",
               "type": "address"
            },
            {
               "indexed": false,
               "internalType": "uint256",
               "name": "yieldAmount",
               "type": "uint256"
            }
         ],
         "name": "LoanRepayed",
         "type": "event"
      },
      {
         "anonymous": false,
         "inputs": [
            {
               "indexed": true,
               "internalType": "address",
               "name": "from",
               "type": "address"
            },
            {
               "indexed": true,
               "internalType": "address",
               "name": "to",
               "type": "address"
            }
         ],
         "name": "OwnershipTransferRequested",
         "type": "event"
      },
      {
         "anonymous": false,
         "inputs": [
            {
               "indexed": true,
               "internalType": "address",
               "name": "from",
               "type": "address"
            },
            {
               "indexed": true,
               "internalType": "address",
               "name": "to",
               "type": "address"
            }
         ],
         "name": "OwnershipTransferred",
         "type": "event"
      },
      {
         "anonymous": false,
         "inputs": [
            {
               "indexed": true,
               "internalType": "uint256",
               "name": "yieldId",
               "type": "uint256"
            },
            {
               "indexed": true,
               "internalType": "address",
               "name": "borrower",
               "type": "address"
            },
            {
               "indexed": false,
               "internalType": "uint256",
               "name": "yieldAmount",
               "type": "uint256"
            },
            {
               "indexed": false,
               "internalType": "uint256",
               "name": "loanAmount",
               "type": "uint256"
            },
            {
               "indexed": false,
               "internalType": "uint256",
               "name": "liquidationThreshold",
               "type": "uint256"
            }
         ],
         "name": "YieldLoaned",
         "type": "event"
      },
      {
         "inputs": [],
         "name": "acceptOwnership",
         "outputs": [],
         "stateMutability": "nonpayable",
         "type": "function"
      },
      {
         "inputs": [
            {
               "internalType": "uint256",
               "name": "yieldId",
               "type": "uint256"
            },
            {
               "internalType": "uint256",
               "name": "yieldAmount",
               "type": "uint256"
            },
            {
               "internalType": "bytes",
               "name": "data",
               "type": "bytes"
            },
            {
               "internalType": "uint256",
               "name": "minLoanAmount",
               "type": "uint256"
            },
            {
               "internalType": "uint256",
               "name": "maxLiquidationThreshold",
               "type": "uint256"
            }
         ],
         "name": "borrow",
         "outputs": [],
         "stateMutability": "nonpayable",
         "type": "function"
      },
      {
         "inputs": [],
         "name": "getUsdcPriceInUsd",
         "outputs": [
            {
               "internalType": "uint256",
               "name": "",
               "type": "uint256"
            }
         ],
         "stateMutability": "view",
         "type": "function"
      },
      {
         "inputs": [
            {
               "internalType": "uint256",
               "name": "yieldId",
               "type": "uint256"
            }
         ],
         "name": "getYieldValuationInUsdc",
         "outputs": [
            {
               "internalType": "uint256",
               "name": "",
               "type": "uint256"
            }
         ],
         "stateMutability": "view",
         "type": "function"
      },
      {
         "inputs": [
            {
               "internalType": "uint256",
               "name": "yieldId",
               "type": "uint256"
            },
            {
               "internalType": "address",
               "name": "borrower",
               "type": "address"
            }
         ],
         "name": "liquidate",
         "outputs": [],
         "stateMutability": "nonpayable",
         "type": "function"
      },
      {
         "inputs": [
            {
               "internalType": "address",
               "name": "",
               "type": "address"
            },
            {
               "internalType": "address",
               "name": "",
               "type": "address"
            },
            {
               "internalType": "uint256[]",
               "name": "",
               "type": "uint256[]"
            },
            {
               "internalType": "uint256[]",
               "name": "",
               "type": "uint256[]"
            },
            {
               "internalType": "bytes",
               "name": "",
               "type": "bytes"
            }
         ],
         "name": "onERC1155BatchReceived",
         "outputs": [
            {
               "internalType": "bytes4",
               "name": "",
               "type": "bytes4"
            }
         ],
         "stateMutability": "view",
         "type": "function"
      },
      {
         "inputs": [
            {
               "internalType": "address",
               "name": "",
               "type": "address"
            },
            {
               "internalType": "address",
               "name": "",
               "type": "address"
            },
            {
               "internalType": "uint256",
               "name": "",
               "type": "uint256"
            },
            {
               "internalType": "uint256",
               "name": "",
               "type": "uint256"
            },
            {
               "internalType": "bytes",
               "name": "",
               "type": "bytes"
            }
         ],
         "name": "onERC1155Received",
         "outputs": [
            {
               "internalType": "bytes4",
               "name": "",
               "type": "bytes4"
            }
         ],
         "stateMutability": "view",
         "type": "function"
      },
      {
         "inputs": [],
         "name": "owner",
         "outputs": [
            {
               "internalType": "address",
               "name": "",
               "type": "address"
            }
         ],
         "stateMutability": "view",
         "type": "function"
      },
      {
         "inputs": [
            {
               "internalType": "uint256",
               "name": "yieldId",
               "type": "uint256"
            }
         ],
         "name": "repay",
         "outputs": [],
         "stateMutability": "nonpayable",
         "type": "function"
      },
      {
         "inputs": [
            {
               "internalType": "address",
               "name": "usdcUsdAggregatorAddress",
               "type": "address"
            },
            {
               "internalType": "uint32",
               "name": "usdcUsdFeedHeartbeat",
               "type": "uint32"
            }
         ],
         "name": "setUsdcUsdPriceFeedDetails",
         "outputs": [],
         "stateMutability": "nonpayable",
         "type": "function"
      },
      {
         "inputs": [
            {
               "internalType": "bytes4",
               "name": "interfaceId",
               "type": "bytes4"
            }
         ],
         "name": "supportsInterface",
         "outputs": [
            {
               "internalType": "bool",
               "name": "",
               "type": "bool"
            }
         ],
         "stateMutability": "view",
         "type": "function"
      },
      {
         "inputs": [
            {
               "internalType": "address",
               "name": "to",
               "type": "address"
            }
         ],
         "name": "transferOwnership",
         "outputs": [],
         "stateMutability": "nonpayable",
         "type": "function"
      },
      {
         "inputs": [
            {
               "internalType": "uint256",
               "name": "amount",
               "type": "uint256"
            }
         ],
         "name": "withdraw",
         "outputs": [],
         "stateMutability": "nonpayable",
         "type": "function"
      },
      {
         "stateMutability": "payable",
         "type": "receive"
      }
   ],
   "bytecode": "0x61010060405234801561001157600080fd5b5060405161332b38038061332b833981810160405281019061003391906103dc565b338060008073ffffffffffffffffffffffffffffffffffffffff168273ffffffffffffffffffffffffffffffffffffffff16036100a5576040517f08c379a000000000000000000000000000000000000000000000000000000000815260040161009c906104a0565b60405180910390fd5b816000806101000a81548173ffffffffffffffffffffffffffffffffffffffff021916908373ffffffffffffffffffffffffffffffffffffffff160217905550600073ffffffffffffffffffffffffffffffffffffffff168173ffffffffffffffffffffffffffffffffffffffff1614610129576101288161021160201b60201c565b5b5050508373ffffffffffffffffffffffffffffffffffffffff1660808173ffffffffffffffffffffffffffffffffffffffff16815250508273ffffffffffffffffffffffffffffffffffffffff1660a08173ffffffffffffffffffffffffffffffffffffffff168152505081600260006101000a81548173ffffffffffffffffffffffffffffffffffffffff021916908373ffffffffffffffffffffffffffffffffffffffff16021790555080600260146101000a81548163ffffffff021916908363ffffffff160217905550603c60c08181525050604b60e081815250505050505061052c565b3373ffffffffffffffffffffffffffffffffffffffff168173ffffffffffffffffffffffffffffffffffffffff160361027f576040517f08c379a00000000000000000000000000000000000000000000000000000000081526004016102769061050c565b60405180910390fd5b80600160006101000a81548173ffffffffffffffffffffffffffffffffffffffff021916908373ffffffffffffffffffffffffffffffffffffffff1602179055508073ffffffffffffffffffffffffffffffffffffffff1660008054906101000a900473ffffffffffffffffffffffffffffffffffffffff1673ffffffffffffffffffffffffffffffffffffffff167fed8889f560326eb138920d842192f0eb3dd22b4f139c87a2c57538e05bae127860405160405180910390a350565b600080fd5b600073ffffffffffffffffffffffffffffffffffffffff82169050919050565b600061036d82610342565b9050919050565b61037d81610362565b811461038857600080fd5b50565b60008151905061039a81610374565b92915050565b600063ffffffff82169050919050565b6103b9816103a0565b81146103c457600080fd5b50565b6000815190506103d6816103b0565b92915050565b600080600080608085870312156103f6576103f561033d565b5b60006104048782880161038b565b94505060206104158782880161038b565b93505060406104268782880161038b565b9250506060610437878288016103c7565b91505092959194509250565b600082825260208201905092915050565b7f43616e6e6f7420736574206f776e657220746f207a65726f0000000000000000600082015250565b600061048a601883610443565b915061049582610454565b602082019050919050565b600060208201905081810360008301526104b98161047d565b9050919050565b7f43616e6e6f74207472616e7366657220746f2073656c66000000000000000000600082015250565b60006104f6601783610443565b9150610501826104c0565b602082019050919050565b60006020820190508181036000830152610525816104e9565b9050919050565b60805160a05160c05160e051612d806105ab600039600081816109f5015261124b015260006111d501526000818161044a0152818161052b0152818161074701526113e101526000818161078e015281816108f901528181610e2101528181610ef701528181610f94015281816110dd01526112bd0152612d806000f3fe6080604052600436106100c65760003560e01c80638da5cb5b1161007f578063bc197c8111610059578063bc197c811461025d578063f23a6e611461029a578063f2fde38b146102d7578063ff60987c14610300576100cd565b80638da5cb5b146101cc5780639775fc3c146101f7578063a07cc89514610220576100cd565b806301ffc9a7146100d25780632e1a7d4d1461010f578063371fd8e6146101385780635fae8b3d146101615780637470215d1461018a57806379ba5097146101b5576100cd565b366100cd57005b600080fd5b3480156100de57600080fd5b506100f960048036038101906100f49190611b5f565b610329565b6040516101069190611ba7565b60405180910390f35b34801561011b57600080fd5b5061013660048036038101906101319190611bf8565b6103fb565b005b34801561014457600080fd5b5061015f600480360381019061015a9190611bf8565b610615565b005b34801561016d57600080fd5b5061018860048036038101906101839190611c83565b610878565b005b34801561019657600080fd5b5061019f610aee565b6040516101ac9190611cd2565b60405180910390f35b3480156101c157600080fd5b506101ca610bf0565b005b3480156101d857600080fd5b506101e1610d85565b6040516101ee9190611cfc565b60405180910390f35b34801561020357600080fd5b5061021e60048036038101906102199190611d53565b610dae565b005b34801561022c57600080fd5b5061024760048036038101906102429190611bf8565b610e1c565b6040516102549190611cd2565b60405180910390f35b34801561026957600080fd5b50610284600480360381019061027f9190611e4e565b610ef3565b6040516102919190611f39565b60405180910390f35b3480156102a657600080fd5b506102c160048036038101906102bc9190611f54565b610f90565b6040516102ce9190611f39565b60405180910390f35b3480156102e357600080fd5b506102fe60048036038101906102f99190611fee565b61102b565b005b34801561030c57600080fd5b506103276004803603810190610322919061215c565b61103f565b005b60007f4e2312e0000000000000000000000000000000000000000000000000000000007bffffffffffffffffffffffffffffffffffffffffffffffffffffffff1916827bffffffffffffffffffffffffffffffffffffffffffffffffffffffff191614806103f457507f01ffc9a7000000000000000000000000000000000000000000000000000000007bffffffffffffffffffffffffffffffffffffffffffffffffffffffff1916827bffffffffffffffffffffffffffffffffffffffffffffffffffffffff1916145b9050919050565b610403611482565b60008111610446576040517f08c379a000000000000000000000000000000000000000000000000000000000815260040161043d90612250565b60405180910390fd5b60007f000000000000000000000000000000000000000000000000000000000000000073ffffffffffffffffffffffffffffffffffffffff166370a08231306040518263ffffffff1660e01b81526004016104a19190611cfc565b602060405180830381865afa1580156104be573d6000803e3d6000fd5b505050506040513d601f19601f820116820180604052508101906104e29190612285565b905080821115610527576040517f08c379a000000000000000000000000000000000000000000000000000000000815260040161051e906122fe565b60405180910390fd5b60007f000000000000000000000000000000000000000000000000000000000000000073ffffffffffffffffffffffffffffffffffffffff1663a9059cbb61056d610d85565b856040518363ffffffff1660e01b815260040161058b92919061231e565b6020604051808303816000875af11580156105aa573d6000803e3d6000fd5b505050506040513d601f19601f820116820180604052508101906105ce9190612373565b905080610610576040517f08c379a0000000000000000000000000000000000000000000000000000000008152600401610607906123ec565b60405180910390fd5b505050565b60006003600083815260200190815260200160002060003373ffffffffffffffffffffffffffffffffffffffff1673ffffffffffffffffffffffffffffffffffffffff1681526020019081526020016000206040518060600160405290816000820154815260200160018201548152602001600282015481525050905060008160200151036106d0576040517fd32e7fc600000000000000000000000000000000000000000000000000000000815260040160405180910390fd5b6003600083815260200190815260200160002060003373ffffffffffffffffffffffffffffffffffffffff1673ffffffffffffffffffffffffffffffffffffffff16815260200190815260200160002060008082016000905560018201600090556002820160009055505061078c333083602001517f000000000000000000000000000000000000000000000000000000000000000073ffffffffffffffffffffffffffffffffffffffff16611512909392919063ffffffff16565b7f000000000000000000000000000000000000000000000000000000000000000073ffffffffffffffffffffffffffffffffffffffff1663f242432a30338585600001516040518563ffffffff1660e01b81526004016107ef9493929190612443565b600060405180830381600087803b15801561080957600080fd5b505af115801561081d573d6000803e3d6000fd5b505050503373ffffffffffffffffffffffffffffffffffffffff16827f3cfe8cfc6745599f812a0cbcacb1f5262f4dda9639287b43c57913614c817c66836000015160405161086c9190611cd2565b60405180910390a35050565b60006003600084815260200190815260200160002060008373ffffffffffffffffffffffffffffffffffffffff1673ffffffffffffffffffffffffffffffffffffffff1681526020019081526020016000206040518060600160405290816000820154815260200160018201548152602001600282015481525050905060007f000000000000000000000000000000000000000000000000000000000000000073ffffffffffffffffffffffffffffffffffffffff16635977e82a856040518263ffffffff1660e01b81526004016109509190611cd2565b602060405180830381865afa15801561096d573d6000803e3d6000fd5b505050506040513d601f19601f820116820180604052508101906109919190612285565b826000015161099f86610e1c565b6109a991906124ca565b6109b3919061253b565b9050600081036109ef576040517f3c75cf3800000000000000000000000000000000000000000000000000000000815260040160405180910390fd5b600060647f000000000000000000000000000000000000000000000000000000000000000083610a1f91906124ca565b610a29919061253b565b90508260400151811015610ae7576003600086815260200190815260200160002060008573ffffffffffffffffffffffffffffffffffffffff1673ffffffffffffffffffffffffffffffffffffffff1681526020019081526020016000206000808201600090556001820160009055600282016000905550508373ffffffffffffffffffffffffffffffffffffffff16857f73de9acc561f27528ab0a3b5dd63fefb4e59f95575891299a6f862a78779817660405160405180910390a35b5050505050565b6000806000600260009054906101000a900473ffffffffffffffffffffffffffffffffffffffff1673ffffffffffffffffffffffffffffffffffffffff1663feaf968c6040518163ffffffff1660e01b815260040160a060405180830381865afa158015610b60573d6000803e3d6000fd5b505050506040513d601f19601f82011682018060405250810190610b8491906125e4565b50935050925050600260149054906101000a900463ffffffff1663ffffffff1642610baf919061265f565b811015610be8576040517f1087e10900000000000000000000000000000000000000000000000000000000815260040160405180910390fd5b819250505090565b600160009054906101000a900473ffffffffffffffffffffffffffffffffffffffff1673ffffffffffffffffffffffffffffffffffffffff163373ffffffffffffffffffffffffffffffffffffffff1614610c80576040517f08c379a0000000000000000000000000000000000000000000000000000000008152600401610c77906126df565b60405180910390fd5b60008060009054906101000a900473ffffffffffffffffffffffffffffffffffffffff169050336000806101000a81548173ffffffffffffffffffffffffffffffffffffffff021916908373ffffffffffffffffffffffffffffffffffffffff1602179055506000600160006101000a81548173ffffffffffffffffffffffffffffffffffffffff021916908373ffffffffffffffffffffffffffffffffffffffff1602179055503373ffffffffffffffffffffffffffffffffffffffff168173ffffffffffffffffffffffffffffffffffffffff167f8be0079c531659141344cd1fd0a4f28419497f9722a3daafe3b4186f6b6457e060405160405180910390a350565b60008060009054906101000a900473ffffffffffffffffffffffffffffffffffffffff16905090565b610db6611482565b81600260006101000a81548173ffffffffffffffffffffffffffffffffffffffff021916908373ffffffffffffffffffffffffffffffffffffffff16021790555080600260146101000a81548163ffffffff021916908363ffffffff1602179055505050565b6000807f000000000000000000000000000000000000000000000000000000000000000073ffffffffffffffffffffffffffffffffffffffff166327750f46846040518263ffffffff1660e01b8152600401610e789190611cd2565b600060405180830381865afa158015610e95573d6000803e3d6000fd5b505050506040513d6000823e3d601f19601f82011682018060405250810190610ebe9190612868565b90506000816060015190506000610ed3610aee565b90506000610ee583620f42408461159b565b905080945050505050919050565b60007f000000000000000000000000000000000000000000000000000000000000000073ffffffffffffffffffffffffffffffffffffffff163373ffffffffffffffffffffffffffffffffffffffff1614610f7a576040517f14fc50dd00000000000000000000000000000000000000000000000000000000815260040160405180910390fd5b63bc197c8160e01b905098975050505050505050565b60007f000000000000000000000000000000000000000000000000000000000000000073ffffffffffffffffffffffffffffffffffffffff163373ffffffffffffffffffffffffffffffffffffffff1614611017576040517f14fc50dd00000000000000000000000000000000000000000000000000000000815260040160405180910390fd5b63f23a6e6160e01b90509695505050505050565b611033611482565b61103c816116ac565b50565b60006003600087815260200190815260200160002060003373ffffffffffffffffffffffffffffffffffffffff1673ffffffffffffffffffffffffffffffffffffffff16815260200190815260200160002060010154146110d95733856040517f11d337ea0000000000000000000000000000000000000000000000000000000081526004016110d092919061231e565b60405180910390fd5b60007f000000000000000000000000000000000000000000000000000000000000000073ffffffffffffffffffffffffffffffffffffffff16635977e82a876040518263ffffffff1660e01b81526004016111349190611cd2565b602060405180830381865afa158015611151573d6000803e3d6000fd5b505050506040513d601f19601f820116820180604052508101906111759190612285565b8561117f88610e1c565b61118991906124ca565b611193919061253b565b9050600081036111cf576040517f3c75cf3800000000000000000000000000000000000000000000000000000000815260040160405180910390fd5b600060647f0000000000000000000000000000000000000000000000000000000000000000836111ff91906124ca565b611209919061253b565b905083811015611245576040517f6728a9f600000000000000000000000000000000000000000000000000000000815260040160405180910390fd5b600060647f00000000000000000000000000000000000000000000000000000000000000008461127591906124ca565b61127f919061253b565b9050838111156112bb576040517f6728a9f600000000000000000000000000000000000000000000000000000000815260040160405180910390fd5b7f000000000000000000000000000000000000000000000000000000000000000073ffffffffffffffffffffffffffffffffffffffff1663f242432a33308b8b8b6040518663ffffffff1660e01b815260040161131c9594939291906128f5565b600060405180830381600087803b15801561133657600080fd5b505af115801561134a573d6000803e3d6000fd5b50505050604051806060016040528088815260200183815260200182815250600360008a815260200190815260200160002060003373ffffffffffffffffffffffffffffffffffffffff1673ffffffffffffffffffffffffffffffffffffffff16815260200190815260200160002060008201518160000155602082015181600101556040820151816002015590505061142533837f000000000000000000000000000000000000000000000000000000000000000073ffffffffffffffffffffffffffffffffffffffff166117d89092919063ffffffff16565b3373ffffffffffffffffffffffffffffffffffffffff16887fa5b4c2de6acfeb019d5c16e53ea2b3b234db39f877fec3d48fea7846f079b6578985856040516114709392919061294f565b60405180910390a35050505050505050565b60008054906101000a900473ffffffffffffffffffffffffffffffffffffffff1673ffffffffffffffffffffffffffffffffffffffff163373ffffffffffffffffffffffffffffffffffffffff1614611510576040517f08c379a0000000000000000000000000000000000000000000000000000000008152600401611507906129d2565b60405180910390fd5b565b611595846323b872dd60e01b858585604051602401611533939291906129f2565b604051602081830303815290604052907bffffffffffffffffffffffffffffffffffffffffffffffffffffffff19166020820180517bffffffffffffffffffffffffffffffffffffffffffffffffffffffff838183161783525050505061185e565b50505050565b60008060008019858709858702925082811083820303915050600081036115d6578382816115cc576115cb61250c565b5b04925050506116a5565b808411611618576040517f08c379a000000000000000000000000000000000000000000000000000000000815260040161160f90612a75565b60405180910390fd5b60008486880990508281118203915080830392506000600186190186169050808604955080840493506001818260000304019050808302841793506000600287600302189050808702600203810290508087026002038102905080870260020381029050808702600203810290508087026002038102905080870260020381029050808502955050505050505b9392505050565b3373ffffffffffffffffffffffffffffffffffffffff168173ffffffffffffffffffffffffffffffffffffffff160361171a576040517f08c379a000000000000000000000000000000000000000000000000000000000815260040161171190612ae1565b60405180910390fd5b80600160006101000a81548173ffffffffffffffffffffffffffffffffffffffff021916908373ffffffffffffffffffffffffffffffffffffffff1602179055508073ffffffffffffffffffffffffffffffffffffffff1660008054906101000a900473ffffffffffffffffffffffffffffffffffffffff1673ffffffffffffffffffffffffffffffffffffffff167fed8889f560326eb138920d842192f0eb3dd22b4f139c87a2c57538e05bae127860405160405180910390a350565b6118598363a9059cbb60e01b84846040516024016117f792919061231e565b604051602081830303815290604052907bffffffffffffffffffffffffffffffffffffffffffffffffffffffff19166020820180517bffffffffffffffffffffffffffffffffffffffffffffffffffffffff838183161783525050505061185e565b505050565b60006118c0826040518060400160405280602081526020017f5361666545524332303a206c6f772d6c6576656c2063616c6c206661696c65648152508573ffffffffffffffffffffffffffffffffffffffff166119269092919063ffffffff16565b90506000815114806118e25750808060200190518101906118e19190612373565b5b611921576040517f08c379a000000000000000000000000000000000000000000000000000000000815260040161191890612b73565b60405180910390fd5b505050565b6060611935848460008561193e565b90509392505050565b606082471015611983576040517f08c379a000000000000000000000000000000000000000000000000000000000815260040161197a90612c05565b60405180910390fd5b6000808673ffffffffffffffffffffffffffffffffffffffff1685876040516119ac9190612c61565b60006040518083038185875af1925050503d80600081146119e9576040519150601f19603f3d011682016040523d82523d6000602084013e6119ee565b606091505b50915091506119ff87838387611a0b565b92505050949350505050565b60608315611a6d576000835103611a6557611a2585611a80565b611a64576040517f08c379a0000000000000000000000000000000000000000000000000000000008152600401611a5b90612cc4565b60405180910390fd5b5b829050611a78565b611a778383611aa3565b5b949350505050565b6000808273ffffffffffffffffffffffffffffffffffffffff163b119050919050565b600082511115611ab65781518083602001fd5b806040517f08c379a0000000000000000000000000000000000000000000000000000000008152600401611aea9190612d28565b60405180910390fd5b6000604051905090565b600080fd5b600080fd5b60007fffffffff0000000000000000000000000000000000000000000000000000000082169050919050565b611b3c81611b07565b8114611b4757600080fd5b50565b600081359050611b5981611b33565b92915050565b600060208284031215611b7557611b74611afd565b5b6000611b8384828501611b4a565b91505092915050565b60008115159050919050565b611ba181611b8c565b82525050565b6000602082019050611bbc6000830184611b98565b92915050565b6000819050919050565b611bd581611bc2565b8114611be057600080fd5b50565b600081359050611bf281611bcc565b92915050565b600060208284031215611c0e57611c0d611afd565b5b6000611c1c84828501611be3565b91505092915050565b600073ffffffffffffffffffffffffffffffffffffffff82169050919050565b6000611c5082611c25565b9050919050565b611c6081611c45565b8114611c6b57600080fd5b50565b600081359050611c7d81611c57565b92915050565b60008060408385031215611c9a57611c99611afd565b5b6000611ca885828601611be3565b9250506020611cb985828601611c6e565b9150509250929050565b611ccc81611bc2565b82525050565b6000602082019050611ce76000830184611cc3565b92915050565b611cf681611c45565b82525050565b6000602082019050611d116000830184611ced565b92915050565b600063ffffffff82169050919050565b611d3081611d17565b8114611d3b57600080fd5b50565b600081359050611d4d81611d27565b92915050565b60008060408385031215611d6a57611d69611afd565b5b6000611d7885828601611c6e565b9250506020611d8985828601611d3e565b9150509250929050565b600080fd5b600080fd5b600080fd5b60008083601f840112611db857611db7611d93565b5b8235905067ffffffffffffffff811115611dd557611dd4611d98565b5b602083019150836020820283011115611df157611df0611d9d565b5b9250929050565b60008083601f840112611e0e57611e0d611d93565b5b8235905067ffffffffffffffff811115611e2b57611e2a611d98565b5b602083019150836001820283011115611e4757611e46611d9d565b5b9250929050565b60008060008060008060008060a0898b031215611e6e57611e6d611afd565b5b6000611e7c8b828c01611c6e565b9850506020611e8d8b828c01611c6e565b975050604089013567ffffffffffffffff811115611eae57611ead611b02565b5b611eba8b828c01611da2565b9650965050606089013567ffffffffffffffff811115611edd57611edc611b02565b5b611ee98b828c01611da2565b9450945050608089013567ffffffffffffffff811115611f0c57611f0b611b02565b5b611f188b828c01611df8565b92509250509295985092959890939650565b611f3381611b07565b82525050565b6000602082019050611f4e6000830184611f2a565b92915050565b60008060008060008060a08789031215611f7157611f70611afd565b5b6000611f7f89828a01611c6e565b9650506020611f9089828a01611c6e565b9550506040611fa189828a01611be3565b9450506060611fb289828a01611be3565b935050608087013567ffffffffffffffff811115611fd357611fd2611b02565b5b611fdf89828a01611df8565b92509250509295509295509295565b60006020828403121561200457612003611afd565b5b600061201284828501611c6e565b91505092915050565b600080fd5b6000601f19601f8301169050919050565b7f4e487b7100000000000000000000000000000000000000000000000000000000600052604160045260246000fd5b61206982612020565b810181811067ffffffffffffffff8211171561208857612087612031565b5b80604052505050565b600061209b611af3565b90506120a78282612060565b919050565b600067ffffffffffffffff8211156120c7576120c6612031565b5b6120d082612020565b9050602081019050919050565b82818337600083830152505050565b60006120ff6120fa846120ac565b612091565b90508281526020810184848401111561211b5761211a61201b565b5b6121268482856120dd565b509392505050565b600082601f83011261214357612142611d93565b5b81356121538482602086016120ec565b91505092915050565b600080600080600060a0868803121561217857612177611afd565b5b600061218688828901611be3565b955050602061219788828901611be3565b945050604086013567ffffffffffffffff8111156121b8576121b7611b02565b5b6121c48882890161212e565b93505060606121d588828901611be3565b92505060806121e688828901611be3565b9150509295509295909350565b600082825260208201905092915050565b7f416d6f756e74206d7573742062652067726561746572207468616e207a65726f600082015250565b600061223a6020836121f3565b915061224582612204565b602082019050919050565b600060208201905081810360008301526122698161222d565b9050919050565b60008151905061227f81611bcc565b92915050565b60006020828403121561229b5761229a611afd565b5b60006122a984828501612270565b91505092915050565b7f496e73756666696369656e7420555344432062616c616e636500000000000000600082015250565b60006122e86019836121f3565b91506122f3826122b2565b602082019050919050565b60006020820190508181036000830152612317816122db565b9050919050565b60006040820190506123336000830185611ced565b6123406020830184611cc3565b9392505050565b61235081611b8c565b811461235b57600080fd5b50565b60008151905061236d81612347565b92915050565b60006020828403121561238957612388611afd565b5b60006123978482850161235e565b91505092915050565b7f55534443207472616e73666572206661696c6564000000000000000000000000600082015250565b60006123d66014836121f3565b91506123e1826123a0565b602082019050919050565b60006020820190508181036000830152612405816123c9565b9050919050565b600082825260208201905092915050565b50565b600061242d60008361240c565b91506124388261241d565b600082019050919050565b600060a0820190506124586000830187611ced565b6124656020830186611ced565b6124726040830185611cc3565b61247f6060830184611cc3565b818103608083015261249081612420565b905095945050505050565b7f4e487b7100000000000000000000000000000000000000000000000000000000600052601160045260246000fd5b60006124d582611bc2565b91506124e083611bc2565b92508282026124ee81611bc2565b915082820484148315176125055761250461249b565b5b5092915050565b7f4e487b7100000000000000000000000000000000000000000000000000000000600052601260045260246000fd5b600061254682611bc2565b915061255183611bc2565b9250826125615761256061250c565b5b828204905092915050565b600069ffffffffffffffffffff82169050919050565b61258b8161256c565b811461259657600080fd5b50565b6000815190506125a881612582565b92915050565b6000819050919050565b6125c1816125ae565b81146125cc57600080fd5b50565b6000815190506125de816125b8565b92915050565b600080600080600060a08688031215612600576125ff611afd565b5b600061260e88828901612599565b955050602061261f888289016125cf565b945050604061263088828901612270565b935050606061264188828901612270565b925050608061265288828901612599565b9150509295509295909350565b600061266a82611bc2565b915061267583611bc2565b925082820390508181111561268d5761268c61249b565b5b92915050565b7f4d7573742062652070726f706f736564206f776e657200000000000000000000600082015250565b60006126c96016836121f3565b91506126d482612693565b602082019050919050565b600060208201905081810360008301526126f8816126bc565b9050919050565b600080fd5b600080fd5b600067ffffffffffffffff82111561272457612723612031565b5b61272d82612020565b9050602081019050919050565b60005b8381101561275857808201518184015260208101905061273d565b60008484015250505050565b600061277761277284612709565b612091565b9050828152602081018484840111156127935761279261201b565b5b61279e84828561273a565b509392505050565b600082601f8301126127bb576127ba611d93565b5b81516127cb848260208601612764565b91505092915050565b6000608082840312156127ea576127e96126ff565b5b6127f46080612091565b9050600061280484828501612270565b600083015250602082015167ffffffffffffffff81111561282857612827612704565b5b612834848285016127a6565b602083015250604061284884828501612270565b604083015250606061285c84828501612270565b60608301525092915050565b60006020828403121561287e5761287d611afd565b5b600082015167ffffffffffffffff81111561289c5761289b611b02565b5b6128a8848285016127d4565b91505092915050565b600081519050919050565b60006128c7826128b1565b6128d1818561240c565b93506128e181856020860161273a565b6128ea81612020565b840191505092915050565b600060a08201905061290a6000830188611ced565b6129176020830187611ced565b6129246040830186611cc3565b6129316060830185611cc3565b818103608083015261294381846128bc565b90509695505050505050565b60006060820190506129646000830186611cc3565b6129716020830185611cc3565b61297e6040830184611cc3565b949350505050565b7f4f6e6c792063616c6c61626c65206279206f776e657200000000000000000000600082015250565b60006129bc6016836121f3565b91506129c782612986565b602082019050919050565b600060208201905081810360008301526129eb816129af565b9050919050565b6000606082019050612a076000830186611ced565b612a146020830185611ced565b612a216040830184611cc3565b949350505050565b7f4d6174683a206d756c446976206f766572666c6f770000000000000000000000600082015250565b6000612a5f6015836121f3565b9150612a6a82612a29565b602082019050919050565b60006020820190508181036000830152612a8e81612a52565b9050919050565b7f43616e6e6f74207472616e7366657220746f2073656c66000000000000000000600082015250565b6000612acb6017836121f3565b9150612ad682612a95565b602082019050919050565b60006020820190508181036000830152612afa81612abe565b9050919050565b7f5361666545524332303a204552433230206f7065726174696f6e20646964206e60008201527f6f74207375636365656400000000000000000000000000000000000000000000602082015250565b6000612b5d602a836121f3565b9150612b6882612b01565b604082019050919050565b60006020820190508181036000830152612b8c81612b50565b9050919050565b7f416464726573733a20696e73756666696369656e742062616c616e636520666f60008201527f722063616c6c0000000000000000000000000000000000000000000000000000602082015250565b6000612bef6026836121f3565b9150612bfa82612b93565b604082019050919050565b60006020820190508181036000830152612c1e81612be2565b9050919050565b600081905092915050565b6000612c3b826128b1565b612c458185612c25565b9350612c5581856020860161273a565b80840191505092915050565b6000612c6d8284612c30565b915081905092915050565b7f416464726573733a2063616c6c20746f206e6f6e2d636f6e7472616374000000600082015250565b6000612cae601d836121f3565b9150612cb982612c78565b602082019050919050565b60006020820190508181036000830152612cdd81612ca1565b9050919050565b600081519050919050565b6000612cfa82612ce4565b612d0481856121f3565b9350612d1481856020860161273a565b612d1d81612020565b840191505092915050565b60006020820190508181036000830152612d428184612cef565b90509291505056fea264697066735822122084b97fbefc1a46254daa164edec62e84054daa00bdd583ef3facfbaa0a804d5364736f6c63430008190033",
   "linkReferences": {},
   "deployedLinkReferences": {}
}