{
   "_format": "hh-sol-artifact-1",
   "contractName": "YieldToken",
   "sourceName": "contracts/YieldToken.sol",
   "abi": [
      {
         "inputs": [
            {
               "internalType": "address",
               "name": "_landTokenContract",
               "type": "address"
            },
            {
               "internalType": "string",
               "name": "_uri",
               "type": "string"
            }
         ],
         "stateMutability": "nonpayable",
         "type": "constructor"
      },
      {
         "anonymous": false,
         "inputs": [
            {
               "indexed": true,
               "internalType": "address",
               "name": "account",
               "type": "address"
            },
            {
               "indexed": true,
               "internalType": "address",
               "name": "operator",
               "type": "address"
            },
            {
               "indexed": false,
               "internalType": "bool",
               "name": "approved",
               "type": "bool"
            }
         ],
         "name": "ApprovalForAll",
         "type": "event"
      },
      {
         "anonymous": false,
         "inputs": [
            {
               "indexed": true,
               "internalType": "address",
               "name": "owner",
               "type": "address"
            },
            {
               "indexed": true,
               "internalType": "uint256",
               "name": "yieldId",
               "type": "uint256"
            },
            {
               "indexed": false,
               "internalType": "uint256",
               "name": "amount",
               "type": "uint256"
            }
         ],
         "name": "BurnYield",
         "type": "event"
      },
      {
         "anonymous": false,
         "inputs": [
            {
               "indexed": true,
               "internalType": "address",
               "name": "from",
               "type": "address"
            },
            {
               "indexed": true,
               "internalType": "address",
               "name": "to",
               "type": "address"
            }
         ],
         "name": "OwnershipTransferRequested",
         "type": "event"
      },
      {
         "anonymous": false,
         "inputs": [
            {
               "indexed": true,
               "internalType": "address",
               "name": "from",
               "type": "address"
            },
            {
               "indexed": true,
               "internalType": "address",
               "name": "to",
               "type": "address"
            }
         ],
         "name": "OwnershipTransferred",
         "type": "event"
      },
      {
         "anonymous": false,
         "inputs": [
            {
               "indexed": true,
               "internalType": "uint256",
               "name": "listId",
               "type": "uint256"
            },
            {
               "indexed": true,
               "internalType": "uint256",
               "name": "yieldId",
               "type": "uint256"
            },
            {
               "indexed": false,
               "internalType": "uint256",
               "name": "amount",
               "type": "uint256"
            }
         ],
         "name": "SharePurchased",
         "type": "event"
      },
      {
         "anonymous": false,
         "inputs": [
            {
               "indexed": true,
               "internalType": "address",
               "name": "operator",
               "type": "address"
            },
            {
               "indexed": true,
               "internalType": "address",
               "name": "from",
               "type": "address"
            },
            {
               "indexed": true,
               "internalType": "address",
               "name": "to",
               "type": "address"
            },
            {
               "indexed": false,
               "internalType": "uint256[]",
               "name": "ids",
               "type": "uint256[]"
            },
            {
               "indexed": false,
               "internalType": "uint256[]",
               "name": "values",
               "type": "uint256[]"
            }
         ],
         "name": "TransferBatch",
         "type": "event"
      },
      {
         "anonymous": false,
         "inputs": [
            {
               "indexed": true,
               "internalType": "address",
               "name": "operator",
               "type": "address"
            },
            {
               "indexed": true,
               "internalType": "address",
               "name": "from",
               "type": "address"
            },
            {
               "indexed": true,
               "internalType": "address",
               "name": "to",
               "type": "address"
            },
            {
               "indexed": false,
               "internalType": "uint256",
               "name": "id",
               "type": "uint256"
            },
            {
               "indexed": false,
               "internalType": "uint256",
               "name": "value",
               "type": "uint256"
            }
         ],
         "name": "TransferSingle",
         "type": "event"
      },
      {
         "anonymous": false,
         "inputs": [
            {
               "indexed": false,
               "internalType": "string",
               "name": "value",
               "type": "string"
            },
            {
               "indexed": true,
               "internalType": "uint256",
               "name": "id",
               "type": "uint256"
            }
         ],
         "name": "URI",
         "type": "event"
      },
      {
         "anonymous": false,
         "inputs": [
            {
               "indexed": true,
               "internalType": "uint256",
               "name": "listId",
               "type": "uint256"
            },
            {
               "indexed": true,
               "internalType": "uint256",
               "name": "yieldId",
               "type": "uint256"
            },
            {
               "indexed": false,
               "internalType": "uint256",
               "name": "amount",
               "type": "uint256"
            },
            {
               "indexed": false,
               "internalType": "uint256",
               "name": "pricePerShare",
               "type": "uint256"
            }
         ],
         "name": "YieldListed",
         "type": "event"
      },
      {
         "anonymous": false,
         "inputs": [
            {
               "indexed": true,
               "internalType": "address",
               "name": "owner",
               "type": "address"
            },
            {
               "indexed": true,
               "internalType": "uint256",
               "name": "yieldId",
               "type": "uint256"
            },
            {
               "indexed": true,
               "internalType": "uint256",
               "name": "landTokenId",
               "type": "uint256"
            },
            {
               "indexed": false,
               "internalType": "string",
               "name": "yieldType",
               "type": "string"
            },
            {
               "indexed": false,
               "internalType": "uint256",
               "name": "amount",
               "type": "uint256"
            }
         ],
         "name": "YieldMinted",
         "type": "event"
      },
      {
         "inputs": [
            {
               "internalType": "uint256",
               "name": "yieldId",
               "type": "uint256"
            }
         ],
         "name": "_totalSupply",
         "outputs": [
            {
               "internalType": "uint256",
               "name": "",
               "type": "uint256"
            }
         ],
         "stateMutability": "view",
         "type": "function"
      },
      {
         "inputs": [],
         "name": "acceptOwnership",
         "outputs": [],
         "stateMutability": "nonpayable",
         "type": "function"
      },
      {
         "inputs": [
            {
               "internalType": "address",
               "name": "account",
               "type": "address"
            },
            {
               "internalType": "uint256",
               "name": "id",
               "type": "uint256"
            }
         ],
         "name": "balanceOf",
         "outputs": [
            {
               "internalType": "uint256",
               "name": "",
               "type": "uint256"
            }
         ],
         "stateMutability": "view",
         "type": "function"
      },
      {
         "inputs": [
            {
               "internalType": "address[]",
               "name": "accounts",
               "type": "address[]"
            },
            {
               "internalType": "uint256[]",
               "name": "ids",
               "type": "uint256[]"
            }
         ],
         "name": "balanceOfBatch",
         "outputs": [
            {
               "internalType": "uint256[]",
               "name": "",
               "type": "uint256[]"
            }
         ],
         "stateMutability": "view",
         "type": "function"
      },
      {
         "inputs": [
            {
               "internalType": "uint256",
               "name": "yieldId",
               "type": "uint256"
            },
            {
               "internalType": "uint256",
               "name": "amount",
               "type": "uint256"
            }
         ],
         "name": "burnYield",
         "outputs": [],
         "stateMutability": "nonpayable",
         "type": "function"
      },
      {
         "inputs": [
            {
               "internalType": "uint256",
               "name": "listId",
               "type": "uint256"
            },
            {
               "internalType": "uint256",
               "name": "yieldId",
               "type": "uint256"
            },
            {
               "internalType": "uint256",
               "name": "amount",
               "type": "uint256"
            }
         ],
         "name": "buyShare",
         "outputs": [],
         "stateMutability": "payable",
         "type": "function"
      },
      {
         "inputs": [
            {
               "internalType": "uint256",
               "name": "yieldId",
               "type": "uint256"
            }
         ],
         "name": "getYieldData",
         "outputs": [
            {
               "components": [
                  {
                     "internalType": "uint256",
                     "name": "landTokenId",
                     "type": "uint256"
                  },
                  {
                     "internalType": "string",
                     "name": "yieldType",
                     "type": "string"
                  },
                  {
                     "internalType": "uint256",
                     "name": "season",
                     "type": "uint256"
                  },
                  {
                     "internalType": "uint256",
                     "name": "totalYield",
                     "type": "uint256"
                  }
               ],
               "internalType": "struct YieldToken.YieldData",
               "name": "",
               "type": "tuple"
            }
         ],
         "stateMutability": "view",
         "type": "function"
      },
      {
         "inputs": [
            {
               "internalType": "address",
               "name": "account",
               "type": "address"
            },
            {
               "internalType": "address",
               "name": "operator",
               "type": "address"
            }
         ],
         "name": "isApprovedForAll",
         "outputs": [
            {
               "internalType": "bool",
               "name": "",
               "type": "bool"
            }
         ],
         "stateMutability": "view",
         "type": "function"
      },
      {
         "inputs": [],
         "name": "landTokenContract",
         "outputs": [
            {
               "internalType": "contract IERC721",
               "name": "",
               "type": "address"
            }
         ],
         "stateMutability": "view",
         "type": "function"
      },
      {
         "inputs": [
            {
               "internalType": "uint256",
               "name": "",
               "type": "uint256"
            }
         ],
         "name": "listSupply",
         "outputs": [
            {
               "internalType": "uint256",
               "name": "yieldId",
               "type": "uint256"
            },
            {
               "internalType": "uint256",
               "name": "amount",
               "type": "uint256"
            },
            {
               "internalType": "uint256",
               "name": "pricePerShare",
               "type": "uint256"
            }
         ],
         "stateMutability": "view",
         "type": "function"
      },
      {
         "inputs": [
            {
               "internalType": "uint256",
               "name": "yieldId",
               "type": "uint256"
            },
            {
               "internalType": "uint256",
               "name": "amount",
               "type": "uint256"
            },
            {
               "internalType": "uint256",
               "name": "pricePerShare",
               "type": "uint256"
            }
         ],
         "name": "listTokenForSale",
         "outputs": [],
         "stateMutability": "nonpayable",
         "type": "function"
      },
      {
         "inputs": [
            {
               "internalType": "uint256",
               "name": "landTokenId",
               "type": "uint256"
            },
            {
               "internalType": "string",
               "name": "yieldType",
               "type": "string"
            },
            {
               "internalType": "uint256",
               "name": "season",
               "type": "uint256"
            },
            {
               "internalType": "uint256",
               "name": "totalYield",
               "type": "uint256"
            },
            {
               "internalType": "uint256",
               "name": "amount",
               "type": "uint256"
            }
         ],
         "name": "mintYield",
         "outputs": [],
         "stateMutability": "nonpayable",
         "type": "function"
      },
      {
         "inputs": [],
         "name": "nextCropId",
         "outputs": [
            {
               "internalType": "uint256",
               "name": "",
               "type": "uint256"
            }
         ],
         "stateMutability": "view",
         "type": "function"
      },
      {
         "inputs": [],
         "name": "owner",
         "outputs": [
            {
               "internalType": "address",
               "name": "",
               "type": "address"
            }
         ],
         "stateMutability": "view",
         "type": "function"
      },
      {
         "inputs": [
            {
               "internalType": "address",
               "name": "from",
               "type": "address"
            },
            {
               "internalType": "address",
               "name": "to",
               "type": "address"
            },
            {
               "internalType": "uint256[]",
               "name": "ids",
               "type": "uint256[]"
            },
            {
               "internalType": "uint256[]",
               "name": "amounts",
               "type": "uint256[]"
            },
            {
               "internalType": "bytes",
               "name": "data",
               "type": "bytes"
            }
         ],
         "name": "safeBatchTransferFrom",
         "outputs": [],
         "stateMutability": "nonpayable",
         "type": "function"
      },
      {
         "inputs": [
            {
               "internalType": "address",
               "name": "from",
               "type": "address"
            },
            {
               "internalType": "address",
               "name": "to",
               "type": "address"
            },
            {
               "internalType": "uint256",
               "name": "id",
               "type": "uint256"
            },
            {
               "internalType": "uint256",
               "name": "amount",
               "type": "uint256"
            },
            {
               "internalType": "bytes",
               "name": "data",
               "type": "bytes"
            }
         ],
         "name": "safeTransferFrom",
         "outputs": [],
         "stateMutability": "nonpayable",
         "type": "function"
      },
      {
         "inputs": [
            {
               "internalType": "address",
               "name": "operator",
               "type": "address"
            },
            {
               "internalType": "bool",
               "name": "approved",
               "type": "bool"
            }
         ],
         "name": "setApprovalForAll",
         "outputs": [],
         "stateMutability": "nonpayable",
         "type": "function"
      },
      {
         "inputs": [
            {
               "internalType": "string",
               "name": "newuri",
               "type": "string"
            }
         ],
         "name": "setURI",
         "outputs": [],
         "stateMutability": "nonpayable",
         "type": "function"
      },
      {
         "inputs": [
            {
               "internalType": "bytes4",
               "name": "interfaceId",
               "type": "bytes4"
            }
         ],
         "name": "supportsInterface",
         "outputs": [
            {
               "internalType": "bool",
               "name": "",
               "type": "bool"
            }
         ],
         "stateMutability": "view",
         "type": "function"
      },
      {
         "inputs": [
            {
               "internalType": "uint256",
               "name": "",
               "type": "uint256"
            }
         ],
         "name": "totalSupply",
         "outputs": [
            {
               "internalType": "uint256",
               "name": "",
               "type": "uint256"
            }
         ],
         "stateMutability": "view",
         "type": "function"
      },
      {
         "inputs": [
            {
               "internalType": "address",
               "name": "to",
               "type": "address"
            }
         ],
         "name": "transferOwnership",
         "outputs": [],
         "stateMutability": "nonpayable",
         "type": "function"
      },
      {
         "inputs": [
            {
               "internalType": "uint256",
               "name": "",
               "type": "uint256"
            }
         ],
         "name": "uri",
         "outputs": [
            {
               "internalType": "string",
               "name": "",
               "type": "string"
            }
         ],
         "stateMutability": "view",
         "type": "function"
      },
      {
         "inputs": [
            {
               "internalType": "uint256",
               "name": "",
               "type": "uint256"
            }
         ],
         "name": "yieldData",
         "outputs": [
            {
               "internalType": "uint256",
               "name": "landTokenId",
               "type": "uint256"
            },
            {
               "internalType": "string",
               "name": "yieldType",
               "type": "string"
            },
            {
               "internalType": "uint256",
               "name": "season",
               "type": "uint256"
            },
            {
               "internalType": "uint256",
               "name": "totalYield",
               "type": "uint256"
            }
         ],
         "stateMutability": "view",
         "type": "function"
      }
   ],
   "bytecode": "0x608060405234801561001057600080fd5b50604051614ee6380380614ee68339818101604052810190610032919061049a565b33806000836100468161018660201b60201c565b50600073ffffffffffffffffffffffffffffffffffffffff168273ffffffffffffffffffffffffffffffffffffffff16036100b6576040517f08c379a00000000000000000000000000000000000000000000000000000000081526004016100ad90610553565b60405180910390fd5b81600360006101000a81548173ffffffffffffffffffffffffffffffffffffffff021916908373ffffffffffffffffffffffffffffffffffffffff160217905550600073ffffffffffffffffffffffffffffffffffffffff168173ffffffffffffffffffffffffffffffffffffffff161461013b5761013a8161019960201b60201c565b5b50505081600560006101000a81548173ffffffffffffffffffffffffffffffffffffffff021916908373ffffffffffffffffffffffffffffffffffffffff16021790555050506108d2565b80600290816101959190610794565b5050565b3373ffffffffffffffffffffffffffffffffffffffff168173ffffffffffffffffffffffffffffffffffffffff1603610207576040517f08c379a00000000000000000000000000000000000000000000000000000000081526004016101fe906108b2565b60405180910390fd5b80600460006101000a81548173ffffffffffffffffffffffffffffffffffffffff021916908373ffffffffffffffffffffffffffffffffffffffff1602179055508073ffffffffffffffffffffffffffffffffffffffff16600360009054906101000a900473ffffffffffffffffffffffffffffffffffffffff1673ffffffffffffffffffffffffffffffffffffffff167fed8889f560326eb138920d842192f0eb3dd22b4f139c87a2c57538e05bae127860405160405180910390a350565b6000604051905090565b600080fd5b600080fd5b600073ffffffffffffffffffffffffffffffffffffffff82169050919050565b6000610306826102db565b9050919050565b610316816102fb565b811461032157600080fd5b50565b6000815190506103338161030d565b92915050565b600080fd5b600080fd5b6000601f19601f8301169050919050565b7f4e487b7100000000000000000000000000000000000000000000000000000000600052604160045260246000fd5b61038c82610343565b810181811067ffffffffffffffff821117156103ab576103aa610354565b5b80604052505050565b60006103be6102c7565b90506103ca8282610383565b919050565b600067ffffffffffffffff8211156103ea576103e9610354565b5b6103f382610343565b9050602081019050919050565b60005b8381101561041e578082015181840152602081019050610403565b60008484015250505050565b600061043d610438846103cf565b6103b4565b9050828152602081018484840111156104595761045861033e565b5b610464848285610400565b509392505050565b600082601f83011261048157610480610339565b5b815161049184826020860161042a565b91505092915050565b600080604083850312156104b1576104b06102d1565b5b60006104bf85828601610324565b925050602083015167ffffffffffffffff8111156104e0576104df6102d6565b5b6104ec8582860161046c565b9150509250929050565b600082825260208201905092915050565b7f43616e6e6f7420736574206f776e657220746f207a65726f0000000000000000600082015250565b600061053d6018836104f6565b915061054882610507565b602082019050919050565b6000602082019050818103600083015261056c81610530565b9050919050565b600081519050919050565b7f4e487b7100000000000000000000000000000000000000000000000000000000600052602260045260246000fd5b600060028204905060018216806105c557607f821691505b6020821081036105d8576105d761057e565b5b50919050565b60008190508160005260206000209050919050565b60006020601f8301049050919050565b600082821b905092915050565b6000600883026106407fffffffffffffffffffffffffffffffffffffffffffffffffffffffffffffffff82610603565b61064a8683610603565b95508019841693508086168417925050509392505050565b6000819050919050565b6000819050919050565b600061069161068c61068784610662565b61066c565b610662565b9050919050565b6000819050919050565b6106ab83610676565b6106bf6106b782610698565b848454610610565b825550505050565b600090565b6106d46106c7565b6106df8184846106a2565b505050565b5b81811015610703576106f86000826106cc565b6001810190506106e5565b5050565b601f82111561074857610719816105de565b610722846105f3565b81016020851015610731578190505b61074561073d856105f3565b8301826106e4565b50505b505050565b600082821c905092915050565b600061076b6000198460080261074d565b1980831691505092915050565b6000610784838361075a565b9150826002028217905092915050565b61079d82610573565b67ffffffffffffffff8111156107b6576107b5610354565b5b6107c082546105ad565b6107cb828285610707565b600060209050601f8311600181146107fe57600084156107ec578287015190505b6107f68582610778565b86555061085e565b601f19841661080c866105de565b60005b828110156108345784890151825560018201915060208501945060208101905061080f565b86831015610851578489015161084d601f89168261075a565b8355505b6001600288020188555050505b505050505050565b7f43616e6e6f74207472616e7366657220746f2073656c66000000000000000000600082015250565b600061089c6017836104f6565b91506108a782610866565b602082019050919050565b600060208201905081810360008301526108cb8161088f565b9050919050565b614605806108e16000396000f3fe60806040526004361061013f5760003560e01c80637273cc02116100b6578063e985e9c51161006f578063e985e9c5146104a8578063f242432a146104e5578063f2fde38b1461050e578063f41cc39714610537578063f519c42814610562578063f6bd99411461058b5761013f565b80637273cc02146103ac57806379ba5097146103d55780638da5cb5b146103ec578063a22cb46514610417578063bd85b03914610440578063cc2293271461047d5761013f565b806327750f461161010857806327750f461461024d5780632eb2c2d61461028a57806335d1d242146102b35780634e1273f4146102f35780635977e82a146103305780636fcd47a31461036d5761013f565b8062fdd58e1461014457806301ffc9a71461018157806302fe5305146101be5780630e89341c146101e75780632586ce8e14610224575b600080fd5b34801561015057600080fd5b5061016b6004803603810190610166919061276c565b6105a7565b60405161017891906127bb565b60405180910390f35b34801561018d57600080fd5b506101a860048036038101906101a3919061282e565b61066f565b6040516101b59190612876565b60405180910390f35b3480156101ca57600080fd5b506101e560048036038101906101e091906129d7565b610751565b005b3480156101f357600080fd5b5061020e60048036038101906102099190612a20565b610765565b60405161021b9190612acc565b60405180910390f35b34801561023057600080fd5b5061024b60048036038101906102469190612aee565b6107f9565b005b34801561025957600080fd5b50610274600480360381019061026f9190612a20565b6108cd565b6040516102819190612bea565b60405180910390f35b34801561029657600080fd5b506102b160048036038101906102ac9190612d75565b6109aa565b005b3480156102bf57600080fd5b506102da60048036038101906102d59190612a20565b610a4b565b6040516102ea9493929190612e44565b60405180910390f35b3480156102ff57600080fd5b5061031a60048036038101906103159190612f53565b610b03565b604051610327919061307a565b60405180910390f35b34801561033c57600080fd5b5061035760048036038101906103529190612a20565b610c16565b60405161036491906127bb565b60405180910390f35b34801561037957600080fd5b50610394600480360381019061038f9190612a20565b610c33565b6040516103a39392919061309c565b60405180910390f35b3480156103b857600080fd5b506103d360048036038101906103ce91906130d3565b610c6d565b005b3480156103e157600080fd5b506103ea610de9565b005b3480156103f857600080fd5b50610401610f80565b60405161040e9190613135565b60405180910390f35b34801561042357600080fd5b5061043e6004803603810190610439919061317c565b610faa565b005b34801561044c57600080fd5b5061046760048036038101906104629190612a20565b610fc0565b60405161047491906127bb565b60405180910390f35b34801561048957600080fd5b50610492610fd8565b60405161049f919061321b565b60405180910390f35b3480156104b457600080fd5b506104cf60048036038101906104ca9190613236565b610ffe565b6040516104dc9190612876565b60405180910390f35b3480156104f157600080fd5b5061050c60048036038101906105079190613276565b611092565b005b34801561051a57600080fd5b506105356004803603810190610530919061330d565b611133565b005b34801561054357600080fd5b5061054c611147565b60405161055991906127bb565b60405180910390f35b34801561056e57600080fd5b506105896004803603810190610584919061333a565b61114d565b005b6105a560048036038101906105a091906130d3565b61136d565b005b60008073ffffffffffffffffffffffffffffffffffffffff168373ffffffffffffffffffffffffffffffffffffffff1603610617576040517f08c379a000000000000000000000000000000000000000000000000000000000815260040161060e90613443565b60405180910390fd5b60008083815260200190815260200160002060008473ffffffffffffffffffffffffffffffffffffffff1673ffffffffffffffffffffffffffffffffffffffff16815260200190815260200160002054905092915050565b60007fd9b67a26000000000000000000000000000000000000000000000000000000007bffffffffffffffffffffffffffffffffffffffffffffffffffffffff1916827bffffffffffffffffffffffffffffffffffffffffffffffffffffffff1916148061073a57507f0e89341c000000000000000000000000000000000000000000000000000000007bffffffffffffffffffffffffffffffffffffffffffffffffffffffff1916827bffffffffffffffffffffffffffffffffffffffffffffffffffffffff1916145b8061074a5750610749826114e4565b5b9050919050565b61075961154e565b610762816115e0565b50565b60606002805461077490613492565b80601f01602080910402602001604051908101604052809291908181526020018280546107a090613492565b80156107ed5780601f106107c2576101008083540402835291602001916107ed565b820191906000526020600020905b8154815290600101906020018083116107d057829003601f168201915b50505050509050919050565b8061080433846105a7565b1015610845576040517f08c379a000000000000000000000000000000000000000000000000000000000815260040161083c90613535565b60405180910390fd5b6108503383836115f3565b806007600084815260200190815260200160002060008282546108739190613584565b92505081905550813373ffffffffffffffffffffffffffffffffffffffff167ffb3ceddabde643bf56b170861e9332ac05ebf4b5a88c6662a71832de01ae3e72836040516108c191906127bb565b60405180910390a35050565b6108d561269c565b600660008381526020019081526020016000206040518060800160405290816000820154815260200160018201805461090d90613492565b80601f016020809104026020016040519081016040528092919081815260200182805461093990613492565b80156109865780601f1061095b57610100808354040283529160200191610986565b820191906000526020600020905b81548152906001019060200180831161096957829003601f168201915b50505050508152602001600282015481526020016003820154815250509050919050565b6109b2611839565b73ffffffffffffffffffffffffffffffffffffffff168573ffffffffffffffffffffffffffffffffffffffff1614806109f857506109f7856109f2611839565b610ffe565b5b610a37576040517f08c379a0000000000000000000000000000000000000000000000000000000008152600401610a2e9061362a565b60405180910390fd5b610a448585858585611841565b5050505050565b6006602052806000526040600020600091509050806000015490806001018054610a7490613492565b80601f0160208091040260200160405190810160405280929190818152602001828054610aa090613492565b8015610aed5780601f10610ac257610100808354040283529160200191610aed565b820191906000526020600020905b815481529060010190602001808311610ad057829003601f168201915b5050505050908060020154908060030154905084565b60608151835114610b49576040517f08c379a0000000000000000000000000000000000000000000000000000000008152600401610b40906136bc565b60405180910390fd5b6000835167ffffffffffffffff811115610b6657610b656128ac565b5b604051908082528060200260200182016040528015610b945781602001602082028036833780820191505090505b50905060005b8451811015610c0b57610be1858281518110610bb957610bb86136dc565b5b6020026020010151858381518110610bd457610bd36136dc565b5b60200260200101516105a7565b828281518110610bf457610bf36136dc565b5b602002602001018181525050806001019050610b9a565b508091505092915050565b600060076000838152602001908152602001600020549050919050565b60088181548110610c4357600080fd5b90600052602060002090600302016000915090508060000154908060010154908060020154905083565b6000610c7933856105a7565b11610cb9576040517f08c379a0000000000000000000000000000000000000000000000000000000008152600401610cb090613757565b60405180910390fd5b610cc333846105a7565b821115610d05576040517f08c379a0000000000000000000000000000000000000000000000000000000008152600401610cfc906137c3565b60405180910390fd5b610d0f3330610ffe565b506000604051806060016040528085815260200184815260200183815250905060088190806001815401808255809150506001900390600052602060002090600302016000909190919091506000820151816000015560208201518160010155604082015181600201555050610d973330868660405180602001604052806000815250611092565b836001600880549050610daa9190613584565b7ff274e52ce4f051f04c5392aad517d31e72b86ddc076f6ae1047a95e469f799348585604051610ddb9291906137e3565b60405180910390a350505050565b600460009054906101000a900473ffffffffffffffffffffffffffffffffffffffff1673ffffffffffffffffffffffffffffffffffffffff163373ffffffffffffffffffffffffffffffffffffffff1614610e79576040517f08c379a0000000000000000000000000000000000000000000000000000000008152600401610e7090613858565b60405180910390fd5b6000600360009054906101000a900473ffffffffffffffffffffffffffffffffffffffff16905033600360006101000a81548173ffffffffffffffffffffffffffffffffffffffff021916908373ffffffffffffffffffffffffffffffffffffffff1602179055506000600460006101000a81548173ffffffffffffffffffffffffffffffffffffffff021916908373ffffffffffffffffffffffffffffffffffffffff1602179055503373ffffffffffffffffffffffffffffffffffffffff168173ffffffffffffffffffffffffffffffffffffffff167f8be0079c531659141344cd1fd0a4f28419497f9722a3daafe3b4186f6b6457e060405160405180910390a350565b6000600360009054906101000a900473ffffffffffffffffffffffffffffffffffffffff16905090565b610fbc610fb5611839565b8383611b5c565b5050565b60076020528060005260406000206000915090505481565b600560009054906101000a900473ffffffffffffffffffffffffffffffffffffffff1681565b6000600160008473ffffffffffffffffffffffffffffffffffffffff1673ffffffffffffffffffffffffffffffffffffffff16815260200190815260200160002060008373ffffffffffffffffffffffffffffffffffffffff1673ffffffffffffffffffffffffffffffffffffffff16815260200190815260200160002060009054906101000a900460ff16905092915050565b61109a611839565b73ffffffffffffffffffffffffffffffffffffffff168573ffffffffffffffffffffffffffffffffffffffff1614806110e057506110df856110da611839565b610ffe565b5b61111f576040517f08c379a00000000000000000000000000000000000000000000000000000000081526004016111169061362a565b60405180910390fd5b61112c8585858585611cc8565b5050505050565b61113b61154e565b61114481611f63565b50565b60095481565b3373ffffffffffffffffffffffffffffffffffffffff16600560009054906101000a900473ffffffffffffffffffffffffffffffffffffffff1673ffffffffffffffffffffffffffffffffffffffff16636352211e876040518263ffffffff1660e01b81526004016111bf91906127bb565b602060405180830381865afa1580156111dc573d6000803e3d6000fd5b505050506040513d601f19601f82011682018060405250810190611200919061388d565b73ffffffffffffffffffffffffffffffffffffffff1614611256576040517f08c379a000000000000000000000000000000000000000000000000000000000815260040161124d9061392c565b60405180910390fd5b60006009549050600960008154809291906112709061394c565b9190505550604051806080016040528087815260200186815260200185815260200184815250600660008381526020019081526020016000206000820151816000015560208201518160010190816112c89190613b36565b5060408201518160020155606082015181600301559050506112fb33828460405180602001604052806000815250612091565b81600760008381526020019081526020016000208190555085813373ffffffffffffffffffffffffffffffffffffffff167fd8a2e8c58edf040e77f32892d0a6378c6cfe037ea0532c1e1532887b248f7e2b888660405161135d929190613c08565b60405180910390a4505050505050565b60088381548110611381576113806136dc565b5b9060005260206000209060030201600101548111156113d5576040517f08c379a00000000000000000000000000000000000000000000000000000000081526004016113cc90613c84565b60405180910390fd5b600081600885815481106113ec576113eb6136dc565b5b9060005260206000209060030201600201546114089190613ca4565b905080341461144c576040517f08c379a000000000000000000000000000000000000000000000000000000000815260040161144390613d32565b60405180910390fd5b6114683033858560405180602001604052806000815250611092565b6008848154811061147c5761147b6136dc565b5b906000526020600020906003020160008082016000905560018201600090556002820160009055505082847f184526050a79b8338067f45d8c6d36f87d0aa4ea0e83adc8e6de518e518acad2846040516114d691906127bb565b60405180910390a350505050565b60007f01ffc9a7000000000000000000000000000000000000000000000000000000007bffffffffffffffffffffffffffffffffffffffffffffffffffffffff1916827bffffffffffffffffffffffffffffffffffffffffffffffffffffffff1916149050919050565b600360009054906101000a900473ffffffffffffffffffffffffffffffffffffffff1673ffffffffffffffffffffffffffffffffffffffff163373ffffffffffffffffffffffffffffffffffffffff16146115de576040517f08c379a00000000000000000000000000000000000000000000000000000000081526004016115d590613d9e565b60405180910390fd5b565b80600290816115ef9190613b36565b5050565b600073ffffffffffffffffffffffffffffffffffffffff168373ffffffffffffffffffffffffffffffffffffffff1603611662576040517f08c379a000000000000000000000000000000000000000000000000000000000815260040161165990613e30565b60405180910390fd5b600061166c611839565b9050600061167984612241565b9050600061168684612241565b90506116a6838760008585604051806020016040528060008152506122bb565b600080600087815260200190815260200160002060008873ffffffffffffffffffffffffffffffffffffffff1673ffffffffffffffffffffffffffffffffffffffff1681526020019081526020016000205490508481101561173d576040517f08c379a000000000000000000000000000000000000000000000000000000000815260040161173490613ec2565b60405180910390fd5b84810360008088815260200190815260200160002060008973ffffffffffffffffffffffffffffffffffffffff1673ffffffffffffffffffffffffffffffffffffffff16815260200190815260200160002081905550600073ffffffffffffffffffffffffffffffffffffffff168773ffffffffffffffffffffffffffffffffffffffff168573ffffffffffffffffffffffffffffffffffffffff167fc3d58168c5ae7397731d063d5bbf3d657854427343f4c083240f7aacaa2d0f62898960405161180a9291906137e3565b60405180910390a4611830848860008686604051806020016040528060008152506122c3565b50505050505050565b600033905090565b8151835114611885576040517f08c379a000000000000000000000000000000000000000000000000000000000815260040161187c90613f54565b60405180910390fd5b600073ffffffffffffffffffffffffffffffffffffffff168473ffffffffffffffffffffffffffffffffffffffff16036118f4576040517f08c379a00000000000000000000000000000000000000000000000000000000081526004016118eb90613fe6565b60405180910390fd5b60006118fe611839565b905061190e8187878787876122bb565b60005b8451811015611ab957600085828151811061192f5761192e6136dc565b5b60200260200101519050600085838151811061194e5761194d6136dc565b5b60200260200101519050600080600084815260200190815260200160002060008b73ffffffffffffffffffffffffffffffffffffffff1673ffffffffffffffffffffffffffffffffffffffff168152602001908152602001600020549050818110156119ef576040517f08c379a00000000000000000000000000000000000000000000000000000000081526004016119e690614078565b60405180910390fd5b81810360008085815260200190815260200160002060008c73ffffffffffffffffffffffffffffffffffffffff1673ffffffffffffffffffffffffffffffffffffffff168152602001908152602001600020819055508160008085815260200190815260200160002060008b73ffffffffffffffffffffffffffffffffffffffff1673ffffffffffffffffffffffffffffffffffffffff1681526020019081526020016000206000828254611aa49190614098565b92505081905550505050806001019050611911565b508473ffffffffffffffffffffffffffffffffffffffff168673ffffffffffffffffffffffffffffffffffffffff168273ffffffffffffffffffffffffffffffffffffffff167f4a39dc06d4c0dbc64b70af90fd698a233a518aa5d07e595d983b8c0526c8f7fb8787604051611b309291906140cc565b60405180910390a4611b468187878787876122c3565b611b548187878787876122cb565b505050505050565b8173ffffffffffffffffffffffffffffffffffffffff168373ffffffffffffffffffffffffffffffffffffffff1603611bca576040517f08c379a0000000000000000000000000000000000000000000000000000000008152600401611bc190614175565b60405180910390fd5b80600160008573ffffffffffffffffffffffffffffffffffffffff1673ffffffffffffffffffffffffffffffffffffffff16815260200190815260200160002060008473ffffffffffffffffffffffffffffffffffffffff1673ffffffffffffffffffffffffffffffffffffffff16815260200190815260200160002060006101000a81548160ff0219169083151502179055508173ffffffffffffffffffffffffffffffffffffffff168373ffffffffffffffffffffffffffffffffffffffff167f17307eab39ab6107e8899845ad3d59bd9653f200f220920489ca2b5937696c3183604051611cbb9190612876565b60405180910390a3505050565b600073ffffffffffffffffffffffffffffffffffffffff168473ffffffffffffffffffffffffffffffffffffffff1603611d37576040517f08c379a0000000000000000000000000000000000000000000000000000000008152600401611d2e90613fe6565b60405180910390fd5b6000611d41611839565b90506000611d4e85612241565b90506000611d5b85612241565b9050611d6b8389898585896122bb565b600080600088815260200190815260200160002060008a73ffffffffffffffffffffffffffffffffffffffff1673ffffffffffffffffffffffffffffffffffffffff16815260200190815260200160002054905085811015611e02576040517f08c379a0000000000000000000000000000000000000000000000000000000008152600401611df990614078565b60405180910390fd5b85810360008089815260200190815260200160002060008b73ffffffffffffffffffffffffffffffffffffffff1673ffffffffffffffffffffffffffffffffffffffff168152602001908152602001600020819055508560008089815260200190815260200160002060008a73ffffffffffffffffffffffffffffffffffffffff1673ffffffffffffffffffffffffffffffffffffffff1681526020019081526020016000206000828254611eb79190614098565b925050819055508773ffffffffffffffffffffffffffffffffffffffff168973ffffffffffffffffffffffffffffffffffffffff168573ffffffffffffffffffffffffffffffffffffffff167fc3d58168c5ae7397731d063d5bbf3d657854427343f4c083240f7aacaa2d0f628a8a604051611f349291906137e3565b60405180910390a4611f4a848a8a86868a6122c3565b611f58848a8a8a8a8a6124a2565b505050505050505050565b3373ffffffffffffffffffffffffffffffffffffffff168173ffffffffffffffffffffffffffffffffffffffff1603611fd1576040517f08c379a0000000000000000000000000000000000000000000000000000000008152600401611fc8906141e1565b60405180910390fd5b80600460006101000a81548173ffffffffffffffffffffffffffffffffffffffff021916908373ffffffffffffffffffffffffffffffffffffffff1602179055508073ffffffffffffffffffffffffffffffffffffffff16600360009054906101000a900473ffffffffffffffffffffffffffffffffffffffff1673ffffffffffffffffffffffffffffffffffffffff167fed8889f560326eb138920d842192f0eb3dd22b4f139c87a2c57538e05bae127860405160405180910390a350565b600073ffffffffffffffffffffffffffffffffffffffff168473ffffffffffffffffffffffffffffffffffffffff1603612100576040517f08c379a00000000000000000000000000000000000000000000000000000000081526004016120f790614273565b60405180910390fd5b600061210a611839565b9050600061211785612241565b9050600061212485612241565b9050612135836000898585896122bb565b8460008088815260200190815260200160002060008973ffffffffffffffffffffffffffffffffffffffff1673ffffffffffffffffffffffffffffffffffffffff16815260200190815260200160002060008282546121949190614098565b925050819055508673ffffffffffffffffffffffffffffffffffffffff16600073ffffffffffffffffffffffffffffffffffffffff168473ffffffffffffffffffffffffffffffffffffffff167fc3d58168c5ae7397731d063d5bbf3d657854427343f4c083240f7aacaa2d0f6289896040516122129291906137e3565b60405180910390a4612229836000898585896122c3565b612238836000898989896124a2565b50505050505050565b60606000600167ffffffffffffffff8111156122605761225f6128ac565b5b60405190808252806020026020018201604052801561228e5781602001602082028036833780820191505090505b50905082816000815181106122a6576122a56136dc565b5b60200260200101818152505080915050919050565b505050505050565b505050505050565b6122ea8473ffffffffffffffffffffffffffffffffffffffff16612679565b1561249a578373ffffffffffffffffffffffffffffffffffffffff1663bc197c8187878686866040518663ffffffff1660e01b81526004016123309594939291906142e8565b6020604051808303816000875af192505050801561236c57506040513d601f19601f820116820180604052508101906123699190614365565b60015b6124115761237861439f565b806308c379a0036123d4575061238c6143c1565b8061239757506123d6565b806040517f08c379a00000000000000000000000000000000000000000000000000000000081526004016123cb9190612acc565b60405180910390fd5b505b6040517f08c379a0000000000000000000000000000000000000000000000000000000008152600401612408906144c3565b60405180910390fd5b63bc197c8160e01b7bffffffffffffffffffffffffffffffffffffffffffffffffffffffff1916817bffffffffffffffffffffffffffffffffffffffffffffffffffffffff191614612498576040517f08c379a000000000000000000000000000000000000000000000000000000000815260040161248f90614555565b60405180910390fd5b505b505050505050565b6124c18473ffffffffffffffffffffffffffffffffffffffff16612679565b15612671578373ffffffffffffffffffffffffffffffffffffffff1663f23a6e6187878686866040518663ffffffff1660e01b8152600401612507959493929190614575565b6020604051808303816000875af192505050801561254357506040513d601f19601f820116820180604052508101906125409190614365565b60015b6125e85761254f61439f565b806308c379a0036125ab57506125636143c1565b8061256e57506125ad565b806040517f08c379a00000000000000000000000000000000000000000000000000000000081526004016125a29190612acc565b60405180910390fd5b505b6040517f08c379a00000000000000000000000000000000000000000000000000000000081526004016125df906144c3565b60405180910390fd5b63f23a6e6160e01b7bffffffffffffffffffffffffffffffffffffffffffffffffffffffff1916817bffffffffffffffffffffffffffffffffffffffffffffffffffffffff19161461266f576040517f08c379a000000000000000000000000000000000000000000000000000000000815260040161266690614555565b60405180910390fd5b505b505050505050565b6000808273ffffffffffffffffffffffffffffffffffffffff163b119050919050565b6040518060800160405280600081526020016060815260200160008152602001600081525090565b6000604051905090565b600080fd5b600080fd5b600073ffffffffffffffffffffffffffffffffffffffff82169050919050565b6000612703826126d8565b9050919050565b612713816126f8565b811461271e57600080fd5b50565b6000813590506127308161270a565b92915050565b6000819050919050565b61274981612736565b811461275457600080fd5b50565b60008135905061276681612740565b92915050565b60008060408385031215612783576127826126ce565b5b600061279185828601612721565b92505060206127a285828601612757565b9150509250929050565b6127b581612736565b82525050565b60006020820190506127d060008301846127ac565b92915050565b60007fffffffff0000000000000000000000000000000000000000000000000000000082169050919050565b61280b816127d6565b811461281657600080fd5b50565b60008135905061282881612802565b92915050565b600060208284031215612844576128436126ce565b5b600061285284828501612819565b91505092915050565b60008115159050919050565b6128708161285b565b82525050565b600060208201905061288b6000830184612867565b92915050565b600080fd5b600080fd5b6000601f19601f8301169050919050565b7f4e487b7100000000000000000000000000000000000000000000000000000000600052604160045260246000fd5b6128e48261289b565b810181811067ffffffffffffffff82111715612903576129026128ac565b5b80604052505050565b60006129166126c4565b905061292282826128db565b919050565b600067ffffffffffffffff821115612942576129416128ac565b5b61294b8261289b565b9050602081019050919050565b82818337600083830152505050565b600061297a61297584612927565b61290c565b90508281526020810184848401111561299657612995612896565b5b6129a1848285612958565b509392505050565b600082601f8301126129be576129bd612891565b5b81356129ce848260208601612967565b91505092915050565b6000602082840312156129ed576129ec6126ce565b5b600082013567ffffffffffffffff811115612a0b57612a0a6126d3565b5b612a17848285016129a9565b91505092915050565b600060208284031215612a3657612a356126ce565b5b6000612a4484828501612757565b91505092915050565b600081519050919050565b600082825260208201905092915050565b60005b83811015612a87578082015181840152602081019050612a6c565b60008484015250505050565b6000612a9e82612a4d565b612aa88185612a58565b9350612ab8818560208601612a69565b612ac18161289b565b840191505092915050565b60006020820190508181036000830152612ae68184612a93565b905092915050565b60008060408385031215612b0557612b046126ce565b5b6000612b1385828601612757565b9250506020612b2485828601612757565b9150509250929050565b612b3781612736565b82525050565b600082825260208201905092915050565b6000612b5982612a4d565b612b638185612b3d565b9350612b73818560208601612a69565b612b7c8161289b565b840191505092915050565b6000608083016000830151612b9f6000860182612b2e565b5060208301518482036020860152612bb78282612b4e565b9150506040830151612bcc6040860182612b2e565b506060830151612bdf6060860182612b2e565b508091505092915050565b60006020820190508181036000830152612c048184612b87565b905092915050565b600067ffffffffffffffff821115612c2757612c266128ac565b5b602082029050602081019050919050565b600080fd5b6000612c50612c4b84612c0c565b61290c565b90508083825260208201905060208402830185811115612c7357612c72612c38565b5b835b81811015612c9c5780612c888882612757565b845260208401935050602081019050612c75565b5050509392505050565b600082601f830112612cbb57612cba612891565b5b8135612ccb848260208601612c3d565b91505092915050565b600067ffffffffffffffff821115612cef57612cee6128ac565b5b612cf88261289b565b9050602081019050919050565b6000612d18612d1384612cd4565b61290c565b905082815260208101848484011115612d3457612d33612896565b5b612d3f848285612958565b509392505050565b600082601f830112612d5c57612d5b612891565b5b8135612d6c848260208601612d05565b91505092915050565b600080600080600060a08688031215612d9157612d906126ce565b5b6000612d9f88828901612721565b9550506020612db088828901612721565b945050604086013567ffffffffffffffff811115612dd157612dd06126d3565b5b612ddd88828901612ca6565b935050606086013567ffffffffffffffff811115612dfe57612dfd6126d3565b5b612e0a88828901612ca6565b925050608086013567ffffffffffffffff811115612e2b57612e2a6126d3565b5b612e3788828901612d47565b9150509295509295909350565b6000608082019050612e5960008301876127ac565b8181036020830152612e6b8186612a93565b9050612e7a60408301856127ac565b612e8760608301846127ac565b95945050505050565b600067ffffffffffffffff821115612eab57612eaa6128ac565b5b602082029050602081019050919050565b6000612ecf612eca84612e90565b61290c565b90508083825260208201905060208402830185811115612ef257612ef1612c38565b5b835b81811015612f1b5780612f078882612721565b845260208401935050602081019050612ef4565b5050509392505050565b600082601f830112612f3a57612f39612891565b5b8135612f4a848260208601612ebc565b91505092915050565b60008060408385031215612f6a57612f696126ce565b5b600083013567ffffffffffffffff811115612f8857612f876126d3565b5b612f9485828601612f25565b925050602083013567ffffffffffffffff811115612fb557612fb46126d3565b5b612fc185828601612ca6565b9150509250929050565b600081519050919050565b600082825260208201905092915050565b6000819050602082019050919050565b60006130038383612b2e565b60208301905092915050565b6000602082019050919050565b600061302782612fcb565b6130318185612fd6565b935061303c83612fe7565b8060005b8381101561306d5781516130548882612ff7565b975061305f8361300f565b925050600181019050613040565b5085935050505092915050565b60006020820190508181036000830152613094818461301c565b905092915050565b60006060820190506130b160008301866127ac565b6130be60208301856127ac565b6130cb60408301846127ac565b949350505050565b6000806000606084860312156130ec576130eb6126ce565b5b60006130fa86828701612757565b935050602061310b86828701612757565b925050604061311c86828701612757565b9150509250925092565b61312f816126f8565b82525050565b600060208201905061314a6000830184613126565b92915050565b6131598161285b565b811461316457600080fd5b50565b60008135905061317681613150565b92915050565b60008060408385031215613193576131926126ce565b5b60006131a185828601612721565b92505060206131b285828601613167565b9150509250929050565b6000819050919050565b60006131e16131dc6131d7846126d8565b6131bc565b6126d8565b9050919050565b60006131f3826131c6565b9050919050565b6000613205826131e8565b9050919050565b613215816131fa565b82525050565b6000602082019050613230600083018461320c565b92915050565b6000806040838503121561324d5761324c6126ce565b5b600061325b85828601612721565b925050602061326c85828601612721565b9150509250929050565b600080600080600060a08688031215613292576132916126ce565b5b60006132a088828901612721565b95505060206132b188828901612721565b94505060406132c288828901612757565b93505060606132d388828901612757565b925050608086013567ffffffffffffffff8111156132f4576132f36126d3565b5b61330088828901612d47565b9150509295509295909350565b600060208284031215613323576133226126ce565b5b600061333184828501612721565b91505092915050565b600080600080600060a08688031215613356576133556126ce565b5b600061336488828901612757565b955050602086013567ffffffffffffffff811115613385576133846126d3565b5b613391888289016129a9565b94505060406133a288828901612757565b93505060606133b388828901612757565b92505060806133c488828901612757565b9150509295509295909350565b7f455243313135353a2061646472657373207a65726f206973206e6f742061207660008201527f616c6964206f776e657200000000000000000000000000000000000000000000602082015250565b600061342d602a83612a58565b9150613438826133d1565b604082019050919050565b6000602082019050818103600083015261345c81613420565b9050919050565b7f4e487b7100000000000000000000000000000000000000000000000000000000600052602260045260246000fd5b600060028204905060018216806134aa57607f821691505b6020821081036134bd576134bc613463565b5b50919050565b7f496e73756666696369656e7420746f6b656e2062616c616e636520746f20627560008201527f726e2e0000000000000000000000000000000000000000000000000000000000602082015250565b600061351f602383612a58565b915061352a826134c3565b604082019050919050565b6000602082019050818103600083015261354e81613512565b9050919050565b7f4e487b7100000000000000000000000000000000000000000000000000000000600052601160045260246000fd5b600061358f82612736565b915061359a83612736565b92508282039050818111156135b2576135b1613555565b5b92915050565b7f455243313135353a2063616c6c6572206973206e6f7420746f6b656e206f776e60008201527f6572206f7220617070726f766564000000000000000000000000000000000000602082015250565b6000613614602e83612a58565b915061361f826135b8565b604082019050919050565b6000602082019050818103600083015261364381613607565b9050919050565b7f455243313135353a206163636f756e747320616e6420696473206c656e67746860008201527f206d69736d617463680000000000000000000000000000000000000000000000602082015250565b60006136a6602983612a58565b91506136b18261364a565b604082019050919050565b600060208201905081810360008301526136d581613699565b9050919050565b7f4e487b7100000000000000000000000000000000000000000000000000000000600052603260045260246000fd5b7f4d757374206265206f776e6572206f6620746f6b656e00000000000000000000600082015250565b6000613741601683612a58565b915061374c8261370b565b602082019050919050565b6000602082019050818103600083015261377081613734565b9050919050565b7f416d6f756e742065786365656465642062616c616e6365000000000000000000600082015250565b60006137ad601783612a58565b91506137b882613777565b602082019050919050565b600060208201905081810360008301526137dc816137a0565b9050919050565b60006040820190506137f860008301856127ac565b61380560208301846127ac565b9392505050565b7f4d7573742062652070726f706f736564206f776e657200000000000000000000600082015250565b6000613842601683612a58565b915061384d8261380c565b602082019050919050565b6000602082019050818103600083015261387181613835565b9050919050565b6000815190506138878161270a565b92915050565b6000602082840312156138a3576138a26126ce565b5b60006138b184828501613878565b91505092915050565b7f596f7520646f6e2774206f776e20746865206c616e6420666f7220746869732060008201527f63726f702e000000000000000000000000000000000000000000000000000000602082015250565b6000613916602583612a58565b9150613921826138ba565b604082019050919050565b6000602082019050818103600083015261394581613909565b9050919050565b600061395782612736565b91507fffffffffffffffffffffffffffffffffffffffffffffffffffffffffffffffff820361398957613988613555565b5b600182019050919050565b60008190508160005260206000209050919050565b60006020601f8301049050919050565b600082821b905092915050565b6000600883026139f67fffffffffffffffffffffffffffffffffffffffffffffffffffffffffffffffff826139b9565b613a0086836139b9565b95508019841693508086168417925050509392505050565b6000613a33613a2e613a2984612736565b6131bc565b612736565b9050919050565b6000819050919050565b613a4d83613a18565b613a61613a5982613a3a565b8484546139c6565b825550505050565b600090565b613a76613a69565b613a81818484613a44565b505050565b5b81811015613aa557613a9a600082613a6e565b600181019050613a87565b5050565b601f821115613aea57613abb81613994565b613ac4846139a9565b81016020851015613ad3578190505b613ae7613adf856139a9565b830182613a86565b50505b505050565b600082821c905092915050565b6000613b0d60001984600802613aef565b1980831691505092915050565b6000613b268383613afc565b9150826002028217905092915050565b613b3f82612a4d565b67ffffffffffffffff811115613b5857613b576128ac565b5b613b628254613492565b613b6d828285613aa9565b600060209050601f831160018114613ba05760008415613b8e578287015190505b613b988582613b1a565b865550613c00565b601f198416613bae86613994565b60005b82811015613bd657848901518255600182019150602085019450602081019050613bb1565b86831015613bf35784890151613bef601f891682613afc565b8355505b6001600288020188555050505b505050505050565b60006040820190508181036000830152613c228185612a93565b9050613c3160208301846127ac565b9392505050565b7f546f6b656e20616d6f756e742065786365656465640000000000000000000000600082015250565b6000613c6e601583612a58565b9150613c7982613c38565b602082019050919050565b60006020820190508181036000830152613c9d81613c61565b9050919050565b6000613caf82612736565b9150613cba83612736565b9250828202613cc881612736565b91508282048414831517613cdf57613cde613555565b5b5092915050565b7f496e636f727265637420616d6f756e7400000000000000000000000000000000600082015250565b6000613d1c601083612a58565b9150613d2782613ce6565b602082019050919050565b60006020820190508181036000830152613d4b81613d0f565b9050919050565b7f4f6e6c792063616c6c61626c65206279206f776e657200000000000000000000600082015250565b6000613d88601683612a58565b9150613d9382613d52565b602082019050919050565b60006020820190508181036000830152613db781613d7b565b9050919050565b7f455243313135353a206275726e2066726f6d20746865207a65726f206164647260008201527f6573730000000000000000000000000000000000000000000000000000000000602082015250565b6000613e1a602383612a58565b9150613e2582613dbe565b604082019050919050565b60006020820190508181036000830152613e4981613e0d565b9050919050565b7f455243313135353a206275726e20616d6f756e7420657863656564732062616c60008201527f616e636500000000000000000000000000000000000000000000000000000000602082015250565b6000613eac602483612a58565b9150613eb782613e50565b604082019050919050565b60006020820190508181036000830152613edb81613e9f565b9050919050565b7f455243313135353a2069647320616e6420616d6f756e7473206c656e6774682060008201527f6d69736d61746368000000000000000000000000000000000000000000000000602082015250565b6000613f3e602883612a58565b9150613f4982613ee2565b604082019050919050565b60006020820190508181036000830152613f6d81613f31565b9050919050565b7f455243313135353a207472616e7366657220746f20746865207a65726f20616460008201527f6472657373000000000000000000000000000000000000000000000000000000602082015250565b6000613fd0602583612a58565b9150613fdb82613f74565b604082019050919050565b60006020820190508181036000830152613fff81613fc3565b9050919050565b7f455243313135353a20696e73756666696369656e742062616c616e636520666f60008201527f72207472616e7366657200000000000000000000000000000000000000000000602082015250565b6000614062602a83612a58565b915061406d82614006565b604082019050919050565b6000602082019050818103600083015261409181614055565b9050919050565b60006140a382612736565b91506140ae83612736565b92508282019050808211156140c6576140c5613555565b5b92915050565b600060408201905081810360008301526140e6818561301c565b905081810360208301526140fa818461301c565b90509392505050565b7f455243313135353a2073657474696e6720617070726f76616c2073746174757360008201527f20666f722073656c660000000000000000000000000000000000000000000000602082015250565b600061415f602983612a58565b915061416a82614103565b604082019050919050565b6000602082019050818103600083015261418e81614152565b9050919050565b7f43616e6e6f74207472616e7366657220746f2073656c66000000000000000000600082015250565b60006141cb601783612a58565b91506141d682614195565b602082019050919050565b600060208201905081810360008301526141fa816141be565b9050919050565b7f455243313135353a206d696e7420746f20746865207a65726f2061646472657360008201527f7300000000000000000000000000000000000000000000000000000000000000602082015250565b600061425d602183612a58565b915061426882614201565b604082019050919050565b6000602082019050818103600083015261428c81614250565b9050919050565b600081519050919050565b600082825260208201905092915050565b60006142ba82614293565b6142c4818561429e565b93506142d4818560208601612a69565b6142dd8161289b565b840191505092915050565b600060a0820190506142fd6000830188613126565b61430a6020830187613126565b818103604083015261431c818661301c565b90508181036060830152614330818561301c565b9050818103608083015261434481846142af565b90509695505050505050565b60008151905061435f81612802565b92915050565b60006020828403121561437b5761437a6126ce565b5b600061438984828501614350565b91505092915050565b60008160e01c9050919050565b600060033d11156143be5760046000803e6143bb600051614392565b90505b90565b600060443d1061444e576143d36126c4565b60043d036004823e80513d602482011167ffffffffffffffff821117156143fb57505061444e565b808201805167ffffffffffffffff811115614419575050505061444e565b80602083010160043d03850181111561443657505050505061444e565b614445826020018501866128db565b82955050505050505b90565b7f455243313135353a207472616e7366657220746f206e6f6e2d4552433131353560008201527f526563656976657220696d706c656d656e746572000000000000000000000000602082015250565b60006144ad603483612a58565b91506144b882614451565b604082019050919050565b600060208201905081810360008301526144dc816144a0565b9050919050565b7f455243313135353a204552433131353552656365697665722072656a6563746560008201527f6420746f6b656e73000000000000000000000000000000000000000000000000602082015250565b600061453f602883612a58565b915061454a826144e3565b604082019050919050565b6000602082019050818103600083015261456e81614532565b9050919050565b600060a08201905061458a6000830188613126565b6145976020830187613126565b6145a460408301866127ac565b6145b160608301856127ac565b81810360808301526145c381846142af565b9050969550505050505056fea26469706673582212201915bacc29fb9e1d87bee9b7fb6de301a4d8de9d4de2dd96f839956eb0ba0b1864736f6c63430008190033",
   "linkReferences": {},
   "deployedLinkReferences": {}
}