{
  "_format": "hh-sol-artifact-1",
  "contractName": "YieldLending",
  "sourceName": "contracts/YieldLending.sol",
  "abi": [
    {
      "inputs": [
        {
          "internalType": "address",
          "name": "yieldTokenAddress",
          "type": "address"
        },
        {
          "internalType": "address",
          "name": "usdc",
          "type": "address"
        },
        {
          "internalType": "address",
          "name": "usdcUsdAggregatorAddress",
          "type": "address"
        },
        {
          "internalType": "uint32",
          "name": "usdcUsdFeedHeartbeat",
          "type": "uint32"
        }
      ],
      "stateMutability": "nonpayable",
      "type": "constructor"
    },
    {
      "inputs": [
        {
          "internalType": "address",
          "name": "borrower",
          "type": "address"
        },
        {
          "internalType": "uint256",
          "name": "yieldId",
          "type": "uint256"
        }
      ],
      "name": "AlreadyBorrowed",
      "type": "error"
    },
    {
      "inputs": [],
      "name": "InvalidRoundId",
      "type": "error"
    },
    {
      "inputs": [],
      "name": "InvalidValuation",
      "type": "error"
    },
    {
      "inputs": [],
      "name": "NothingToRepay",
      "type": "error"
    },
    {
      "inputs": [],
      "name": "OnlyYieldTokenSupported",
      "type": "error"
    },
    {
      "inputs": [],
      "name": "PriceFeedDdosed",
      "type": "error"
    },
    {
      "inputs": [],
      "name": "SlippageToleranceExceeded",
      "type": "error"
    },
    {
      "inputs": [],
      "name": "StalePriceFeed",
      "type": "error"
    },
    {
      "anonymous": false,
      "inputs": [
        {
          "indexed": true,
          "internalType": "uint256",
          "name": "yieldId",
          "type": "uint256"
        },
        {
          "indexed": true,
          "internalType": "address",
          "name": "borrower",
          "type": "address"
        }
      ],
      "name": "LoanLiquidated",
      "type": "event"
    },
    {
      "anonymous": false,
      "inputs": [
        {
          "indexed": true,
          "internalType": "uint256",
          "name": "yieldId",
          "type": "uint256"
        },
        {
          "indexed": true,
          "internalType": "address",
          "name": "borrower",
          "type": "address"
        },
        {
          "indexed": false,
          "internalType": "uint256",
          "name": "yieldAmount",
          "type": "uint256"
        }
      ],
      "name": "LoanRepayed",
      "type": "event"
    },
    {
      "anonymous": false,
      "inputs": [
        {
          "indexed": true,
          "internalType": "address",
          "name": "from",
          "type": "address"
        },
        {
          "indexed": true,
          "internalType": "address",
          "name": "to",
          "type": "address"
        }
      ],
      "name": "OwnershipTransferRequested",
      "type": "event"
    },
    {
      "anonymous": false,
      "inputs": [
        {
          "indexed": true,
          "internalType": "address",
          "name": "from",
          "type": "address"
        },
        {
          "indexed": true,
          "internalType": "address",
          "name": "to",
          "type": "address"
        }
      ],
      "name": "OwnershipTransferred",
      "type": "event"
    },
    {
      "anonymous": false,
      "inputs": [
        {
          "indexed": true,
          "internalType": "uint256",
          "name": "yieldId",
          "type": "uint256"
        },
        {
          "indexed": true,
          "internalType": "address",
          "name": "borrower",
          "type": "address"
        },
        {
          "indexed": false,
          "internalType": "uint256",
          "name": "yieldAmount",
          "type": "uint256"
        },
        {
          "indexed": false,
          "internalType": "uint256",
          "name": "loanAmount",
          "type": "uint256"
        },
        {
          "indexed": false,
          "internalType": "uint256",
          "name": "liquidationThreshold",
          "type": "uint256"
        }
      ],
      "name": "YieldLoaned",
      "type": "event"
    },
    {
      "inputs": [],
      "name": "acceptOwnership",
      "outputs": [],
      "stateMutability": "nonpayable",
      "type": "function"
    },
    {
      "inputs": [
        {
          "internalType": "uint256",
          "name": "yieldId",
          "type": "uint256"
        },
        {
          "internalType": "uint256",
          "name": "yieldAmount",
          "type": "uint256"
        },
        {
          "internalType": "bytes",
          "name": "data",
          "type": "bytes"
        },
        {
          "internalType": "uint256",
          "name": "minLoanAmount",
          "type": "uint256"
        },
        {
          "internalType": "uint256",
          "name": "maxLiquidationThreshold",
          "type": "uint256"
        }
      ],
      "name": "borrow",
      "outputs": [],
      "stateMutability": "nonpayable",
      "type": "function"
    },
    {
      "inputs": [],
      "name": "getUsdcPriceInUsd",
      "outputs": [
        {
          "internalType": "uint256",
          "name": "",
          "type": "uint256"
        }
      ],
      "stateMutability": "view",
      "type": "function"
    },
    {
      "inputs": [
        {
          "internalType": "uint256",
          "name": "yieldId",
          "type": "uint256"
        }
      ],
      "name": "getYieldValuationInUsdc",
      "outputs": [
        {
          "internalType": "uint256",
          "name": "",
          "type": "uint256"
        }
      ],
      "stateMutability": "view",
      "type": "function"
    },
    {
      "inputs": [
        {
          "internalType": "uint256",
          "name": "yieldId",
          "type": "uint256"
        },
        {
          "internalType": "address",
          "name": "borrower",
          "type": "address"
        }
      ],
      "name": "liquidate",
      "outputs": [],
      "stateMutability": "nonpayable",
      "type": "function"
    },
    {
      "inputs": [
        {
          "internalType": "address",
          "name": "",
          "type": "address"
        },
        {
          "internalType": "address",
          "name": "",
          "type": "address"
        },
        {
          "internalType": "uint256[]",
          "name": "",
          "type": "uint256[]"
        },
        {
          "internalType": "uint256[]",
          "name": "",
          "type": "uint256[]"
        },
        {
          "internalType": "bytes",
          "name": "",
          "type": "bytes"
        }
      ],
      "name": "onERC1155BatchReceived",
      "outputs": [
        {
          "internalType": "bytes4",
          "name": "",
          "type": "bytes4"
        }
      ],
      "stateMutability": "view",
      "type": "function"
    },
    {
      "inputs": [
        {
          "internalType": "address",
          "name": "",
          "type": "address"
        },
        {
          "internalType": "address",
          "name": "",
          "type": "address"
        },
        {
          "internalType": "uint256",
          "name": "",
          "type": "uint256"
        },
        {
          "internalType": "uint256",
          "name": "",
          "type": "uint256"
        },
        {
          "internalType": "bytes",
          "name": "",
          "type": "bytes"
        }
      ],
      "name": "onERC1155Received",
      "outputs": [
        {
          "internalType": "bytes4",
          "name": "",
          "type": "bytes4"
        }
      ],
      "stateMutability": "nonpayable",
      "type": "function"
    },
    {
      "inputs": [],
      "name": "owner",
      "outputs": [
        {
          "internalType": "address",
          "name": "",
          "type": "address"
        }
      ],
      "stateMutability": "view",
      "type": "function"
    },
    {
      "inputs": [
        {
          "internalType": "uint256",
          "name": "yieldId",
          "type": "uint256"
        }
      ],
      "name": "repay",
      "outputs": [],
      "stateMutability": "nonpayable",
      "type": "function"
    },
    {
      "inputs": [
        {
          "internalType": "address",
          "name": "usdcUsdAggregatorAddress",
          "type": "address"
        },
        {
          "internalType": "uint32",
          "name": "usdcUsdFeedHeartbeat",
          "type": "uint32"
        }
      ],
      "name": "setUsdcUsdPriceFeedDetails",
      "outputs": [],
      "stateMutability": "nonpayable",
      "type": "function"
    },
    {
      "inputs": [
        {
          "internalType": "bytes4",
          "name": "interfaceId",
          "type": "bytes4"
        }
      ],
      "name": "supportsInterface",
      "outputs": [
        {
          "internalType": "bool",
          "name": "",
          "type": "bool"
        }
      ],
      "stateMutability": "view",
      "type": "function"
    },
    {
      "inputs": [
        {
          "internalType": "address",
          "name": "to",
          "type": "address"
        }
      ],
      "name": "transferOwnership",
      "outputs": [],
      "stateMutability": "nonpayable",
      "type": "function"
    }
  ],
  "bytecode": "0x6101006040523480156200001257600080fd5b506040516200300f3803806200300f8339818101604052810190620000389190620003ff565b338060008073ffffffffffffffffffffffffffffffffffffffff168273ffffffffffffffffffffffffffffffffffffffff1603620000ad576040517f08c379a0000000000000000000000000000000000000000000000000000000008152600401620000a490620004d2565b60405180910390fd5b816000806101000a81548173ffffffffffffffffffffffffffffffffffffffff021916908373ffffffffffffffffffffffffffffffffffffffff160217905550600073ffffffffffffffffffffffffffffffffffffffff168173ffffffffffffffffffffffffffffffffffffffff1614620001345762000133816200022560201b60201c565b5b50505060016002819055508373ffffffffffffffffffffffffffffffffffffffff1660808173ffffffffffffffffffffffffffffffffffffffff16815250508273ffffffffffffffffffffffffffffffffffffffff1660a08173ffffffffffffffffffffffffffffffffffffffff168152505081600360006101000a81548173ffffffffffffffffffffffffffffffffffffffff021916908373ffffffffffffffffffffffffffffffffffffffff16021790555080600360146101000a81548163ffffffff021916908363ffffffff160217905550603c60c08181525050604b60e081815250505050505062000566565b3373ffffffffffffffffffffffffffffffffffffffff168173ffffffffffffffffffffffffffffffffffffffff160362000296576040517f08c379a00000000000000000000000000000000000000000000000000000000081526004016200028d9062000544565b60405180910390fd5b80600160006101000a81548173ffffffffffffffffffffffffffffffffffffffff021916908373ffffffffffffffffffffffffffffffffffffffff1602179055508073ffffffffffffffffffffffffffffffffffffffff1660008054906101000a900473ffffffffffffffffffffffffffffffffffffffff1673ffffffffffffffffffffffffffffffffffffffff167fed8889f560326eb138920d842192f0eb3dd22b4f139c87a2c57538e05bae127860405160405180910390a350565b600080fd5b600073ffffffffffffffffffffffffffffffffffffffff82169050919050565b6000620003868262000359565b9050919050565b620003988162000379565b8114620003a457600080fd5b50565b600081519050620003b8816200038d565b92915050565b600063ffffffff82169050919050565b620003d981620003be565b8114620003e557600080fd5b50565b600081519050620003f981620003ce565b92915050565b600080600080608085870312156200041c576200041b62000354565b5b60006200042c87828801620003a7565b94505060206200043f87828801620003a7565b93505060406200045287828801620003a7565b92505060606200046587828801620003e8565b91505092959194509250565b600082825260208201905092915050565b7f43616e6e6f7420736574206f776e657220746f207a65726f0000000000000000600082015250565b6000620004ba60188362000471565b9150620004c78262000482565b602082019050919050565b60006020820190508181036000830152620004ed81620004ab565b9050919050565b7f43616e6e6f74207472616e7366657220746f2073656c66000000000000000000600082015250565b60006200052c60178362000471565b91506200053982620004f4565b602082019050919050565b600060208201905081810360008301526200055f816200051d565b9050919050565b60805160a05160c05160e051612a37620005d86000396000818161070d0152610f7b01526000610f05015260008181610457015261111101526000818161049e0152818161061101528181610b3901528181610c0f01528181610cb401528181610e0d0152610fed0152612a376000f3fe608060405234801561001057600080fd5b50600436106100b45760003560e01c80639775fc3c116100715780639775fc3c14610167578063a07cc89514610183578063bc197c81146101b3578063f23a6e61146101e3578063f2fde38b14610213578063ff60987c1461022f576100b4565b806301ffc9a7146100b9578063371fd8e6146100e95780635fae8b3d146101055780637470215d1461012157806379ba50971461013f5780638da5cb5b14610149575b600080fd5b6100d360048036038101906100ce91906118ee565b61024b565b6040516100e09190611936565b60405180910390f35b61010360048036038101906100fe9190611987565b61031d565b005b61011f600480360381019061011a9190611a12565b610590565b005b610129610806565b6040516101369190611a61565b60405180910390f35b610147610908565b005b610151610a9d565b60405161015e9190611a8b565b60405180910390f35b610181600480360381019061017c9190611ae2565b610ac6565b005b61019d60048036038101906101989190611987565b610b34565b6040516101aa9190611a61565b60405180910390f35b6101cd60048036038101906101c89190611bdd565b610c0b565b6040516101da9190611cc8565b60405180910390f35b6101fd60048036038101906101f89190611ce3565b610ca8565b60405161020a9190611cc8565b60405180910390f35b61022d60048036038101906102289190611d7d565b610d53565b005b61024960048036038101906102449190611eeb565b610d67565b005b60007f4e2312e0000000000000000000000000000000000000000000000000000000007bffffffffffffffffffffffffffffffffffffffffffffffffffffffff1916827bffffffffffffffffffffffffffffffffffffffffffffffffffffffff1916148061031657507f01ffc9a7000000000000000000000000000000000000000000000000000000007bffffffffffffffffffffffffffffffffffffffffffffffffffffffff1916827bffffffffffffffffffffffffffffffffffffffffffffffffffffffff1916145b9050919050565b6103256111ba565b60006004600083815260200190815260200160002060003373ffffffffffffffffffffffffffffffffffffffff1673ffffffffffffffffffffffffffffffffffffffff1681526020019081526020016000206040518060600160405290816000820154815260200160018201548152602001600282015481525050905060008160200151036103e0576040517fd32e7fc600000000000000000000000000000000000000000000000000000000815260040160405180910390fd5b6004600083815260200190815260200160002060003373ffffffffffffffffffffffffffffffffffffffff1673ffffffffffffffffffffffffffffffffffffffff16815260200190815260200160002060008082016000905560018201600090556002820160009055505061049c333083602001517f000000000000000000000000000000000000000000000000000000000000000073ffffffffffffffffffffffffffffffffffffffff16611207909392919063ffffffff16565b7f000000000000000000000000000000000000000000000000000000000000000073ffffffffffffffffffffffffffffffffffffffff1663f242432a30338585600001516040518563ffffffff1660e01b81526004016104ff9493929190611fb9565b600060405180830381600087803b15801561051957600080fd5b505af115801561052d573d6000803e3d6000fd5b505050503373ffffffffffffffffffffffffffffffffffffffff16827f3cfe8cfc6745599f812a0cbcacb1f5262f4dda9639287b43c57913614c817c66836000015160405161057c9190611a61565b60405180910390a35061058d611290565b50565b60006004600084815260200190815260200160002060008373ffffffffffffffffffffffffffffffffffffffff1673ffffffffffffffffffffffffffffffffffffffff1681526020019081526020016000206040518060600160405290816000820154815260200160018201548152602001600282015481525050905060007f000000000000000000000000000000000000000000000000000000000000000073ffffffffffffffffffffffffffffffffffffffff16635977e82a856040518263ffffffff1660e01b81526004016106689190611a61565b602060405180830381865afa158015610685573d6000803e3d6000fd5b505050506040513d601f19601f820116820180604052508101906106a99190612026565b82600001516106b786610b34565b6106c19190612082565b6106cb91906120f3565b905060008103610707576040517f3c75cf3800000000000000000000000000000000000000000000000000000000815260040160405180910390fd5b600060647f0000000000000000000000000000000000000000000000000000000000000000836107379190612082565b61074191906120f3565b905082604001518110156107ff576004600086815260200190815260200160002060008573ffffffffffffffffffffffffffffffffffffffff1673ffffffffffffffffffffffffffffffffffffffff1681526020019081526020016000206000808201600090556001820160009055600282016000905550508373ffffffffffffffffffffffffffffffffffffffff16857f73de9acc561f27528ab0a3b5dd63fefb4e59f95575891299a6f862a78779817660405160405180910390a35b5050505050565b6000806000600360009054906101000a900473ffffffffffffffffffffffffffffffffffffffff1673ffffffffffffffffffffffffffffffffffffffff1663feaf968c6040518163ffffffff1660e01b815260040160a060405180830381865afa158015610878573d6000803e3d6000fd5b505050506040513d601f19601f8201168201806040525081019061089c919061219c565b50935050925050600360149054906101000a900463ffffffff1663ffffffff16426108c79190612217565b811015610900576040517f1087e10900000000000000000000000000000000000000000000000000000000815260040160405180910390fd5b819250505090565b600160009054906101000a900473ffffffffffffffffffffffffffffffffffffffff1673ffffffffffffffffffffffffffffffffffffffff163373ffffffffffffffffffffffffffffffffffffffff1614610998576040517f08c379a000000000000000000000000000000000000000000000000000000000815260040161098f906122a8565b60405180910390fd5b60008060009054906101000a900473ffffffffffffffffffffffffffffffffffffffff169050336000806101000a81548173ffffffffffffffffffffffffffffffffffffffff021916908373ffffffffffffffffffffffffffffffffffffffff1602179055506000600160006101000a81548173ffffffffffffffffffffffffffffffffffffffff021916908373ffffffffffffffffffffffffffffffffffffffff1602179055503373ffffffffffffffffffffffffffffffffffffffff168173ffffffffffffffffffffffffffffffffffffffff167f8be0079c531659141344cd1fd0a4f28419497f9722a3daafe3b4186f6b6457e060405160405180910390a350565b60008060009054906101000a900473ffffffffffffffffffffffffffffffffffffffff16905090565b610ace61129a565b81600360006101000a81548173ffffffffffffffffffffffffffffffffffffffff021916908373ffffffffffffffffffffffffffffffffffffffff16021790555080600360146101000a81548163ffffffff021916908363ffffffff1602179055505050565b6000807f000000000000000000000000000000000000000000000000000000000000000073ffffffffffffffffffffffffffffffffffffffff166327750f46846040518263ffffffff1660e01b8152600401610b909190611a61565b600060405180830381865afa158015610bad573d6000803e3d6000fd5b505050506040513d6000823e3d601f19601f82011682018060405250810190610bd69190612431565b90506000816060015190506000610beb610806565b90506000610bfd83620f42408461132a565b905080945050505050919050565b60007f000000000000000000000000000000000000000000000000000000000000000073ffffffffffffffffffffffffffffffffffffffff163373ffffffffffffffffffffffffffffffffffffffff1614610c92576040517f14fc50dd00000000000000000000000000000000000000000000000000000000815260040160405180910390fd5b63bc197c8160e01b905098975050505050505050565b6000610cb26111ba565b7f000000000000000000000000000000000000000000000000000000000000000073ffffffffffffffffffffffffffffffffffffffff163373ffffffffffffffffffffffffffffffffffffffff1614610d37576040517f14fc50dd00000000000000000000000000000000000000000000000000000000815260040160405180910390fd5b63f23a6e6160e01b9050610d49611290565b9695505050505050565b610d5b61129a565b610d648161143b565b50565b610d6f6111ba565b60006004600087815260200190815260200160002060003373ffffffffffffffffffffffffffffffffffffffff1673ffffffffffffffffffffffffffffffffffffffff1681526020019081526020016000206001015414610e095733856040517f11d337ea000000000000000000000000000000000000000000000000000000008152600401610e0092919061247a565b60405180910390fd5b60007f000000000000000000000000000000000000000000000000000000000000000073ffffffffffffffffffffffffffffffffffffffff16635977e82a876040518263ffffffff1660e01b8152600401610e649190611a61565b602060405180830381865afa158015610e81573d6000803e3d6000fd5b505050506040513d601f19601f82011682018060405250810190610ea59190612026565b85610eaf88610b34565b610eb99190612082565b610ec391906120f3565b905060008103610eff576040517f3c75cf3800000000000000000000000000000000000000000000000000000000815260040160405180910390fd5b600060647f000000000000000000000000000000000000000000000000000000000000000083610f2f9190612082565b610f3991906120f3565b905083811015610f75576040517f6728a9f600000000000000000000000000000000000000000000000000000000815260040160405180910390fd5b600060647f000000000000000000000000000000000000000000000000000000000000000084610fa59190612082565b610faf91906120f3565b905083811115610feb576040517f6728a9f600000000000000000000000000000000000000000000000000000000815260040160405180910390fd5b7f000000000000000000000000000000000000000000000000000000000000000073ffffffffffffffffffffffffffffffffffffffff1663f242432a33308b8b8b6040518663ffffffff1660e01b815260040161104c9594939291906124e7565b600060405180830381600087803b15801561106657600080fd5b505af115801561107a573d6000803e3d6000fd5b50505050604051806060016040528088815260200183815260200182815250600460008a815260200190815260200160002060003373ffffffffffffffffffffffffffffffffffffffff1673ffffffffffffffffffffffffffffffffffffffff16815260200190815260200160002060008201518160000155602082015181600101556040820151816002015590505061115533837f000000000000000000000000000000000000000000000000000000000000000073ffffffffffffffffffffffffffffffffffffffff166115679092919063ffffffff16565b3373ffffffffffffffffffffffffffffffffffffffff16887fa5b4c2de6acfeb019d5c16e53ea2b3b234db39f877fec3d48fea7846f079b6578985856040516111a093929190612541565b60405180910390a35050506111b3611290565b5050505050565b60028054036111fe576040517f08c379a00000000000000000000000000000000000000000000000000000000081526004016111f5906125c4565b60405180910390fd5b60028081905550565b61128a846323b872dd60e01b858585604051602401611228939291906125e4565b604051602081830303815290604052907bffffffffffffffffffffffffffffffffffffffffffffffffffffffff19166020820180517bffffffffffffffffffffffffffffffffffffffffffffffffffffffff83818316178352505050506115ed565b50505050565b6001600281905550565b60008054906101000a900473ffffffffffffffffffffffffffffffffffffffff1673ffffffffffffffffffffffffffffffffffffffff163373ffffffffffffffffffffffffffffffffffffffff1614611328576040517f08c379a000000000000000000000000000000000000000000000000000000000815260040161131f90612667565b60405180910390fd5b565b60008060008019858709858702925082811083820303915050600081036113655783828161135b5761135a6120c4565b5b0492505050611434565b8084116113a7576040517f08c379a000000000000000000000000000000000000000000000000000000000815260040161139e906126d3565b60405180910390fd5b60008486880990508281118203915080830392506000600186190186169050808604955080840493506001818260000304019050808302841793506000600287600302189050808702600203810290508087026002038102905080870260020381029050808702600203810290508087026002038102905080870260020381029050808502955050505050505b9392505050565b3373ffffffffffffffffffffffffffffffffffffffff168173ffffffffffffffffffffffffffffffffffffffff16036114a9576040517f08c379a00000000000000000000000000000000000000000000000000000000081526004016114a09061273f565b60405180910390fd5b80600160006101000a81548173ffffffffffffffffffffffffffffffffffffffff021916908373ffffffffffffffffffffffffffffffffffffffff1602179055508073ffffffffffffffffffffffffffffffffffffffff1660008054906101000a900473ffffffffffffffffffffffffffffffffffffffff1673ffffffffffffffffffffffffffffffffffffffff167fed8889f560326eb138920d842192f0eb3dd22b4f139c87a2c57538e05bae127860405160405180910390a350565b6115e88363a9059cbb60e01b848460405160240161158692919061247a565b604051602081830303815290604052907bffffffffffffffffffffffffffffffffffffffffffffffffffffffff19166020820180517bffffffffffffffffffffffffffffffffffffffffffffffffffffffff83818316178352505050506115ed565b505050565b600061164f826040518060400160405280602081526020017f5361666545524332303a206c6f772d6c6576656c2063616c6c206661696c65648152508573ffffffffffffffffffffffffffffffffffffffff166116b59092919063ffffffff16565b9050600081511480611671575080806020019051810190611670919061278b565b5b6116b0576040517f08c379a00000000000000000000000000000000000000000000000000000000081526004016116a79061282a565b60405180910390fd5b505050565b60606116c484846000856116cd565b90509392505050565b606082471015611712576040517f08c379a0000000000000000000000000000000000000000000000000000000008152600401611709906128bc565b60405180910390fd5b6000808673ffffffffffffffffffffffffffffffffffffffff16858760405161173b9190612918565b60006040518083038185875af1925050503d8060008114611778576040519150601f19603f3d011682016040523d82523d6000602084013e61177d565b606091505b509150915061178e8783838761179a565b92505050949350505050565b606083156117fc5760008351036117f4576117b48561180f565b6117f3576040517f08c379a00000000000000000000000000000000000000000000000000000000081526004016117ea9061297b565b60405180910390fd5b5b829050611807565b6118068383611832565b5b949350505050565b6000808273ffffffffffffffffffffffffffffffffffffffff163b119050919050565b6000825111156118455781518083602001fd5b806040517f08c379a000000000000000000000000000000000000000000000000000000000815260040161187991906129df565b60405180910390fd5b6000604051905090565b600080fd5b600080fd5b60007fffffffff0000000000000000000000000000000000000000000000000000000082169050919050565b6118cb81611896565b81146118d657600080fd5b50565b6000813590506118e8816118c2565b92915050565b6000602082840312156119045761190361188c565b5b6000611912848285016118d9565b91505092915050565b60008115159050919050565b6119308161191b565b82525050565b600060208201905061194b6000830184611927565b92915050565b6000819050919050565b61196481611951565b811461196f57600080fd5b50565b6000813590506119818161195b565b92915050565b60006020828403121561199d5761199c61188c565b5b60006119ab84828501611972565b91505092915050565b600073ffffffffffffffffffffffffffffffffffffffff82169050919050565b60006119df826119b4565b9050919050565b6119ef816119d4565b81146119fa57600080fd5b50565b600081359050611a0c816119e6565b92915050565b60008060408385031215611a2957611a2861188c565b5b6000611a3785828601611972565b9250506020611a48858286016119fd565b9150509250929050565b611a5b81611951565b82525050565b6000602082019050611a766000830184611a52565b92915050565b611a85816119d4565b82525050565b6000602082019050611aa06000830184611a7c565b92915050565b600063ffffffff82169050919050565b611abf81611aa6565b8114611aca57600080fd5b50565b600081359050611adc81611ab6565b92915050565b60008060408385031215611af957611af861188c565b5b6000611b07858286016119fd565b9250506020611b1885828601611acd565b9150509250929050565b600080fd5b600080fd5b600080fd5b60008083601f840112611b4757611b46611b22565b5b8235905067ffffffffffffffff811115611b6457611b63611b27565b5b602083019150836020820283011115611b8057611b7f611b2c565b5b9250929050565b60008083601f840112611b9d57611b9c611b22565b5b8235905067ffffffffffffffff811115611bba57611bb9611b27565b5b602083019150836001820283011115611bd657611bd5611b2c565b5b9250929050565b60008060008060008060008060a0898b031215611bfd57611bfc61188c565b5b6000611c0b8b828c016119fd565b9850506020611c1c8b828c016119fd565b975050604089013567ffffffffffffffff811115611c3d57611c3c611891565b5b611c498b828c01611b31565b9650965050606089013567ffffffffffffffff811115611c6c57611c6b611891565b5b611c788b828c01611b31565b9450945050608089013567ffffffffffffffff811115611c9b57611c9a611891565b5b611ca78b828c01611b87565b92509250509295985092959890939650565b611cc281611896565b82525050565b6000602082019050611cdd6000830184611cb9565b92915050565b60008060008060008060a08789031215611d0057611cff61188c565b5b6000611d0e89828a016119fd565b9650506020611d1f89828a016119fd565b9550506040611d3089828a01611972565b9450506060611d4189828a01611972565b935050608087013567ffffffffffffffff811115611d6257611d61611891565b5b611d6e89828a01611b87565b92509250509295509295509295565b600060208284031215611d9357611d9261188c565b5b6000611da1848285016119fd565b91505092915050565b600080fd5b6000601f19601f8301169050919050565b7f4e487b7100000000000000000000000000000000000000000000000000000000600052604160045260246000fd5b611df882611daf565b810181811067ffffffffffffffff82111715611e1757611e16611dc0565b5b80604052505050565b6000611e2a611882565b9050611e368282611def565b919050565b600067ffffffffffffffff821115611e5657611e55611dc0565b5b611e5f82611daf565b9050602081019050919050565b82818337600083830152505050565b6000611e8e611e8984611e3b565b611e20565b905082815260208101848484011115611eaa57611ea9611daa565b5b611eb5848285611e6c565b509392505050565b600082601f830112611ed257611ed1611b22565b5b8135611ee2848260208601611e7b565b91505092915050565b600080600080600060a08688031215611f0757611f0661188c565b5b6000611f1588828901611972565b9550506020611f2688828901611972565b945050604086013567ffffffffffffffff811115611f4757611f46611891565b5b611f5388828901611ebd565b9350506060611f6488828901611972565b9250506080611f7588828901611972565b9150509295509295909350565b600082825260208201905092915050565b50565b6000611fa3600083611f82565b9150611fae82611f93565b600082019050919050565b600060a082019050611fce6000830187611a7c565b611fdb6020830186611a7c565b611fe86040830185611a52565b611ff56060830184611a52565b818103608083015261200681611f96565b905095945050505050565b6000815190506120208161195b565b92915050565b60006020828403121561203c5761203b61188c565b5b600061204a84828501612011565b91505092915050565b7f4e487b7100000000000000000000000000000000000000000000000000000000600052601160045260246000fd5b600061208d82611951565b915061209883611951565b92508282026120a681611951565b915082820484148315176120bd576120bc612053565b5b5092915050565b7f4e487b7100000000000000000000000000000000000000000000000000000000600052601260045260246000fd5b60006120fe82611951565b915061210983611951565b925082612119576121186120c4565b5b828204905092915050565b600069ffffffffffffffffffff82169050919050565b61214381612124565b811461214e57600080fd5b50565b6000815190506121608161213a565b92915050565b6000819050919050565b61217981612166565b811461218457600080fd5b50565b60008151905061219681612170565b92915050565b600080600080600060a086880312156121b8576121b761188c565b5b60006121c688828901612151565b95505060206121d788828901612187565b94505060406121e888828901612011565b93505060606121f988828901612011565b925050608061220a88828901612151565b9150509295509295909350565b600061222282611951565b915061222d83611951565b925082820390508181111561224557612244612053565b5b92915050565b600082825260208201905092915050565b7f4d7573742062652070726f706f736564206f776e657200000000000000000000600082015250565b600061229260168361224b565b915061229d8261225c565b602082019050919050565b600060208201905081810360008301526122c181612285565b9050919050565b600080fd5b600080fd5b600067ffffffffffffffff8211156122ed576122ec611dc0565b5b6122f682611daf565b9050602081019050919050565b60005b83811015612321578082015181840152602081019050612306565b60008484015250505050565b600061234061233b846122d2565b611e20565b90508281526020810184848401111561235c5761235b611daa565b5b612367848285612303565b509392505050565b600082601f83011261238457612383611b22565b5b815161239484826020860161232d565b91505092915050565b6000608082840312156123b3576123b26122c8565b5b6123bd6080611e20565b905060006123cd84828501612011565b600083015250602082015167ffffffffffffffff8111156123f1576123f06122cd565b5b6123fd8482850161236f565b602083015250604061241184828501612011565b604083015250606061242584828501612011565b60608301525092915050565b6000602082840312156124475761244661188c565b5b600082015167ffffffffffffffff81111561246557612464611891565b5b6124718482850161239d565b91505092915050565b600060408201905061248f6000830185611a7c565b61249c6020830184611a52565b9392505050565b600081519050919050565b60006124b9826124a3565b6124c38185611f82565b93506124d3818560208601612303565b6124dc81611daf565b840191505092915050565b600060a0820190506124fc6000830188611a7c565b6125096020830187611a7c565b6125166040830186611a52565b6125236060830185611a52565b818103608083015261253581846124ae565b90509695505050505050565b60006060820190506125566000830186611a52565b6125636020830185611a52565b6125706040830184611a52565b949350505050565b7f5265656e7472616e637947756172643a207265656e7472616e742063616c6c00600082015250565b60006125ae601f8361224b565b91506125b982612578565b602082019050919050565b600060208201905081810360008301526125dd816125a1565b9050919050565b60006060820190506125f96000830186611a7c565b6126066020830185611a7c565b6126136040830184611a52565b949350505050565b7f4f6e6c792063616c6c61626c65206279206f776e657200000000000000000000600082015250565b600061265160168361224b565b915061265c8261261b565b602082019050919050565b6000602082019050818103600083015261268081612644565b9050919050565b7f4d6174683a206d756c446976206f766572666c6f770000000000000000000000600082015250565b60006126bd60158361224b565b91506126c882612687565b602082019050919050565b600060208201905081810360008301526126ec816126b0565b9050919050565b7f43616e6e6f74207472616e7366657220746f2073656c66000000000000000000600082015250565b600061272960178361224b565b9150612734826126f3565b602082019050919050565b600060208201905081810360008301526127588161271c565b9050919050565b6127688161191b565b811461277357600080fd5b50565b6000815190506127858161275f565b92915050565b6000602082840312156127a1576127a061188c565b5b60006127af84828501612776565b91505092915050565b7f5361666545524332303a204552433230206f7065726174696f6e20646964206e60008201527f6f74207375636365656400000000000000000000000000000000000000000000602082015250565b6000612814602a8361224b565b915061281f826127b8565b604082019050919050565b6000602082019050818103600083015261284381612807565b9050919050565b7f416464726573733a20696e73756666696369656e742062616c616e636520666f60008201527f722063616c6c0000000000000000000000000000000000000000000000000000602082015250565b60006128a660268361224b565b91506128b18261284a565b604082019050919050565b600060208201905081810360008301526128d581612899565b9050919050565b600081905092915050565b60006128f2826124a3565b6128fc81856128dc565b935061290c818560208601612303565b80840191505092915050565b600061292482846128e7565b915081905092915050565b7f416464726573733a2063616c6c20746f206e6f6e2d636f6e7472616374000000600082015250565b6000612965601d8361224b565b91506129708261292f565b602082019050919050565b6000602082019050818103600083015261299481612958565b9050919050565b600081519050919050565b60006129b18261299b565b6129bb818561224b565b93506129cb818560208601612303565b6129d481611daf565b840191505092915050565b600060208201905081810360008301526129f981846129a6565b90509291505056fea2646970667358221220c7ada5bf526c0e2abd020c6ef8250acbf783b95327c7ff90de418d1f406c834464736f6c63430008180033",
  "linkReferences": {},
  "deployedLinkReferences": {}
}